:020000040800F2
:1000000090B30020E10100089D1500089F1500082D
:10001000A1150008A3150008A515000800000000A0
:10002000000000000000000000000000490100087E
:10003000A7150008000000008D010008A9150008A0
:10004000FB010008FB010008FB010008FB010008A0
:10005000FB010008FB010008FB010008FB01000890
:10006000FB010008FB010008FB010008FB01000880
:10007000FB010008FB010008FB010008FB01000870
:10008000FB010008FB010008FB010008FB01000860
:10009000FB010008FB010008FB010008FB01000850
:1000A000FB010008FB010008FB010008FB01000840
:1000B000FB010008FB010008FB010008FB01000830
:1000C000FB010008FB010008FB010008FB01000820
:1000D000FB010008C1150008FB01000829160008F3
:1000E000FB010008FB010008FB010008FB01000800
:1000F000FB010008FB010008FB010008FB010008F0
:10010000FB010008FB010008FB010008FB010008DF
:10011000FB010008FB010008FB010008FB010008CF
:10012000FB010008FB010008FB010008FB010008BF
:10013000DFF810D007F096F8004800476513000874
:10014000AFF3008090B30020224B19680868B0E834
:10015000F00F80F30988BFF36F8F4FF0000080F33A
:1001600011884EF00D0E7047000000000648006830
:10017000006880F3088862B661B6BFF34F8FBFF3A3
:100180006F8F00DF00BF00BF08ED00E0EFF30980D4
:10019000BFF36F8F0F4B1A6820E9F00F106008B59E
:1001A0004FF0500080F31188BFF34F8FBFF36F8F74
:1001B00005F070FB4FF0000080F31188BDE80840A7
:1001C00019680868B0E8F00F80F30988BFF36F8FF3
:1001D000704700BFD0000020EFF30580704700009B
:1001E0000648804706480047FEE7FEE7FEE7FEE7D1
:1001F000FEE7FEE7FEE7FEE7FEE7FEE7AD020008EA
:10020000310100080CB500220192009252480168A9
:1002100041F4803101604FF4A063016801F40031C2
:1002200000910199491C0191009911B901999942D4
:10023000F3D10168890302D50121009100E0009209
:100240000099012930D145490A6842F010020A603C
:100250000A6822F003020A600A6842F002020A6099
:100260004168416041684160416841F4806141609A
:10027000416821F47C114160416841F4E81141601A
:10028000016841F08071016001688901FCD5416815
:1002900021F003014160416841F002014160416881
:1002A000C1F381010229FAD10CBDABE710B52A4890
:1002B000016841F0010101604168294A1140416033
:1002C0000168284A11400160016821F48021016021
:1002D000416821F4FE0141604FF41F018160FFF786
:1002E000E4FF21494FF00060086010BD10B51A4AC4
:1002F000506800F00C011D4B1D4800290ED0042948
:100300000ED008290ED003605168194AC1F30311B9
:10031000121D515C0268CA40026010BD0360F3E721
:100320000360F1E7516801F47011536803F48033FE
:10033000022404EB914133B153689B0307D50D4B65
:1003400059430160E0E70B4B59430160DCE7074B81
:1003500059430160D8E7000000100240002002402D
:100360000000FFF8FFFFF6FE08ED00E000127A0043
:100370000000002000093D002A4908432A4908607E
:10038000704770B50F23C27801260178002A1ED06D
:10039000254A126802F4E062C2F5E062120AC2F174
:1003A0000404D3404578A54082781A402A431201BC
:1003B00001F1E02181F80024007800F01F018E4057
:1003C0004009800000F1E020C0F8006170BD01F03C
:1003D0001F0086404809800000F1E020C0F88061DD
:1003E00070BD124A114001430F48001F0160704761
:1003F0000D4A121D002903D0116801431160704796
:1004000011688143116070474FF0E021042804D047
:10041000086920F0040008617047086940F0040092
:10042000086170470000FA050CED00E080FFFF1F37
:10043000384900200860091D0860091D0860091D71
:1004400008603449344814310860704730B5314A87
:1004500083790168002B2AD013688B431360111D28
:100460000B680468A3430B60017911440B680468AE
:1004700023430B60274C08342168036899432160AB
:10048000231D19680568A94319604179102905D011
:1004900011440A68006802430A6030BD216802689E
:1004A00011432160196800680143196030BD00796B
:1004B000104402688A43026030BD0021016001716E
:1004C0000C22427181717047124910310A6802434F
:1004D0000A607047014600200E4A143212680A4230
:1004E00000D0012070470B49143108607047014665
:1004F0000020084A12680A40064B14331B680B425E
:1005000002D0002A00D0012070470249143108604F
:100510007047000000040140FFFF0F008100A1F1BF
:10052000C04100280CD043F2D2020A60401C800077
:10053000A0F1C0406FF070420260C1F80421704722
:100540004FF0204343F2DB021A60EFE710B51824A6
:1005500040234FF020414FF0FC32102805D041F8E5
:10056000804F4B608A60CA6010BD0C664B668A661D
:10057000CA6610BDF74818210160002141604FF0A4
:10058000FC318160C1600161704710B5D0E9011292
:100590001143D0E903231A4311434269114382698D
:1005A0001143C2691143026A1143426A1143826ACC
:1005B0001143C26A1143026B114302689200A2F117
:1005C000C04211608168082907D101688900A1F142
:1005D000C0410A6842F040020A60416BD1E9002341
:1005E00042EA03128B688C891B0243EA04431A43D4
:1005F0000B8A42EA03520B7D896942EA03620A438D
:100600000168491C8900A1F1C0410A60C16AB1F5C5
:10061000804F08D000686FF070418000A0F1C040AA
:10062000C0F8041110BD816BD1E9002342EA031226
:100630008B680C8A1B0243EA04531A430B7D8969B9
:1006400042EA036200680A438000A0F1C040C0F89B
:10065000042110BD30B5D0E901121143D0E90323C4
:100660001A431143426941EA4221826941EA423117
:1006700041F00804C169D1E9002342EA03220B8951
:10068000097B1B0443EA01610A43016AD1E9003591
:1006900043EA05230D89097B2D0445EA01610B43DB
:1006A00001684FF02040102904D040F8804F82604C
:1006B000C36030BD04668266C36630BD10B5D0E944
:1006C000001241EA42218268102343EA4232114378
:1006D000A04A1160C168D1E9003443EA04230C89BF
:1006E000097B240444EA01610B4393600169D1E969
:1006F000003443EA04230C89097B240444EA0161A1
:100700000B43D3604069D0E9001341EA0321038918
:10071000007B1B0443EA00600143116110BD10B56A
:1007200000210160022242608160C160016141617B
:100730008161C1610162D202426252008262C16281
:100740000163436B0F221A60436B5A60446BFF23B3
:10075000A360446BE260446B2261446B6261446B52
:10076000A161846B2260846B6260846BA360836B85
:10077000DA60836B1A61836B5A61806B816110BD93
:1007800010210160002141608160C160016141610F
:100790008161C269FC211160C2695160C2699160C6
:1007A000C269D160026A1160026A5160026A916096
:1007B000006AC16070470021016041608160C268C9
:1007C000FC211160C2685160C2689160C268D1604A
:1007D0000269116002695160026991600269D16029
:1007E0004269116042695160426991604069C1602B
:1007F00070478000A0F1C040002904D0016841F09A
:100800000101016070470168534A1140016070475F
:100810004FF0204200290CD0102805D052F8800F4C
:1008200040F0040010607047106E40F00400106645
:1008300070474949C91E102804D052F8800F08405B
:1008400010607047106E0840106670474FF02041EE
:10085000002805D051F8A00F40F004000860704750
:1008600051F8A00F3C4AD21E1040086070474FF06C
:10087000204200290CD0102805D052F8800F40F0FB
:10088000400010607047106E40F0400010667047E6
:1008900031493F39102804D052F8800F08401060C9
:1008A0007047106E0840106670474FF020411028C6
:1008B00002D0D1F894007047486F704710B54FF4DC
:1008C00080744FF02043002A11D0102806D0A04297
:1008D00008D153F8840F0843186010BD586E0843C0
:1008E000586610BD53F8A40F0843186010BD1028B7
:1008F00006D0A04208D153F8840F8843186010BD79
:10090000586E8843586610BD53F8A40F884318608A
:1009100010BD034600204FF02042102B08D0B3F545
:10092000807F07D0D2F8A4200A4200D0012070476F
:10093000526EF9E7D2F88420F6E74FF020421028F3
:100940000CD0B0F5807F0DD052F8A40F8843106012
:1009500070470000A00000A0FEFF0F00506E88430B
:100960005066F5E752F8840F88431060F0E70346BD
:1009700000204FF02042102B0ED0B3F5807F0DD019
:10098000D2F8A42002EA010302EAD101002BDFD051
:100990000029DDD00120DBE7526EF3E7D2F8842096
:1009A000F0E74FF02042102808D0B0F5807F0AD041
:1009B00052F8A40F20EAD1001060C9E7506E20EA77
:1009C000D1005066C4E752F8840F20EAD1001060CD
:1009D000BEE7000010B59C49884209D101210420DE
:1009E00000F07DFA0021BDE81040042000F077BA45
:1009F0009649884209D10121082000F070FA0021AF
:100A0000BDE81040082000F06ABA9149884209D137
:100A10000121102000F063FA0021BDE810401020F1
:100A200000F05DBA8B49884209D10121202000F0F5
:100A300056FA0021BDE81040202000F050BA864947
:100A4000884209D10121402000F049FA0021BDE887
:100A50001040402000F043BA8049884209D101216A
:100A6000802000F03CFA0021BDE81040802000F01A
:100A700036BA7B4988420AD184150121204600F00C
:100A80002EFA2046BDE81040002100F028BA10BD23
:100A900010B50121084600F022FA0021BDE81040FF
:100AA000012000F01CBA2DE9F0410022CC7804F0BE
:100AB0000F03E40601D58C7823430C784FF00F0721
:100AC00014F0FF0F4FF0010C1CD005680CFA02F473
:100AD0000E882640A64211D1960007FA06F825EAAC
:100AE000080503FA06F848EA0505CE78282E02D054
:100AF000482E02D002E0446100E00461521C082A42
:100B0000E4D305600A88FF2A1ED94568002202F155
:100B100008060CFA06F40E882640A64210D196006C
:100B200007FA06F825EA080503FA06F848EA050573
:100B3000CE78282E00D14461CE78482E00D10461B1
:100B4000521C082AE3D34560BDE8F0814FF6FF71DF
:100B50000180022181700421C1707047024600208B
:100B600092680A4200D001207047806880B27047C6
:100B700002460020D2680A4200D001207047C068B7
:100B800080B270470161704741617047002A01D00F
:100B90000161704741617047C160704741F4803224
:100BA00082618161826181698069704710B52D4BD6
:100BB0001A684FF68074224042EA00100843186019
:100BC00010BD2949C8617047F0B5264C002801DAEC
:100BD000E36900E06368C0F30346420D120185B289
:100BE000C0F301579540032F07D0C2020CD5032252
:100BF000B240934343F0706209E023F0706263688F
:100C000023F07063636002E0AB4343F0706201B1B4
:100C10002A43002801DAE261F0BD6260F0BD10B540
:100C20008A07120F0F23934021F003040D4921443A
:100C30008C689C438C608B68904003438B6010BD34
:100C40000949DC310860704700080140000C014090
:100C5000001001400014014000180140001C014038
:100C6000002001400000014000002042B44801681B
:100C700041F0010101604168B24A114041600168E0
:100C8000B14A11400160016821F48021016041688E
:100C900021F4FE0141604FF41F0181607047A849B3
:100CA0000A6822F480320A600A6822F480220A600C
:100CB000B0F5803F07D0B0F5802F03D1086840F42D
:100CC000A02008607047086840F4803008607047D2
:100CD0000346002059099A4A01290AD002290AD05C
:100CE000516A03F01F02012393400B4200D0012000
:100CF00070471168F5E7116AF3E718B50020009016
:100D00004FF4A0643120FFF7E3FF0099491C0091E4
:100D10000099A14201D00028F4D03120FFF7D8FF7C
:100D200008B1012018BD002018BD854A116821F0C6
:100D3000F80141EAC00010607047844908607047BC
:100D40007F4B5A6822F47C12084310435860704766
:100D50007E49086670477A4A516821F003010143D1
:100D6000516070477648406800F00C007047744A44
:100D7000516821F0F001014351607047704A516899
:100D800021F4E0610143516070476D4A516821F4DC
:100D9000605141EAC00050607047694A002903D0A1
:100DA000517A014351727047517A814351727047B1
:100DB0006649D83108607047614A516821F4404162
:100DC0000143516070475E49002220310A7001F8EA
:100DD0002029012805D0042802D1052081F820000F
:100DE0007047012081F8200070475949086070471A
:100DF00053490A6A02430A627047554944390860F8
:100E0000704710B54E4A516801F00C01514B002952
:100E100027D0042927D0082927D00360516801F082
:100E2000F00109094C4B5C5C0168E1404160546889
:100E300004F4E064240A1C5D21FA04F4846054681C
:100E400004F46054E40A1B5DD940C160526802F4A6
:100E50004042920B404B1B1F9A5CB1FBF2F10161C7
:100E600010BD0360DAE70360D8E7516801F4701140
:100E7000536803F48033022404EB914133B1536887
:100E80009B0307D5354B59430160C7E7334B5943A3
:100E90000160C3E72F4B59430160BFE7284A00298F
:100EA00003D05169014351617047516981435161D8
:100EB0007047234A002903D091690143916170472B
:100EC00091698143916170471D4A002903D0D1691E
:100ED0000143D1617047D1698143D1617047184A9C
:100EE000002903D0D1680143D1607047D1688143A4
:100EF000D1607047124A002903D011690143116182
:100F00007047116981431161704711494039086088
:100F100070470E49C86470470949C871704708484E
:100F2000416A41F080714162704701460020044AE5
:100F300092680A4200D001207047014988727047C8
:100F4000001002400000FFF8FFFFF6FE00004242E2
:100F50008004424200127A001800002000093D007F
:100F600010B5E14988420AD101218C032046FFF7E0
:100F7000B6FF2046BDE810400021FFF7B0BFDB49B7
:100F800088420AD101214C042046FFF7B3FF2046D6
:100F9000BDE810400021FFF7ADBFD54988420AD116
:100FA00001218C042046FFF7A5FF2046BDE8104034
:100FB0000021FFF79FBFCF4988420AD10121CC040D
:100FC0002046FFF797FF2046BDE810400021FFF7BD
:100FD00091BFC94988420AD101210C052046FFF77B
:100FE00089FF2046BDE810400021FFF783BF10BDF8
:100FF00030B585B004460D46208A4CF6FF71084096
:10100000E98801432182A0894EF6F3110840A9889E
:101010002A8911436A8902431143A181A08A4FF6AC
:10102000FF410840A9890143A1826846FFF7E9FE14
:10103000AD48844201D1039800E00298A1890904D7
:1010400008D500EBC00101EB001029684900B0FB96
:10105000F1F007E000EBC00101EB00102968890006
:10106000B0FBF1F06422B0FBF2F109010B096FF063
:1010700018056B4300EB8300A3891D044FF0320376
:1010800007D503EBC000B0FBF2F000F00700084307
:1010900006E003EB0010B0FBF2F000F00F00084395
:1010A000208105B030BD4FF41651016000218180D0
:1010B000C18001810C2242818181704710B5038A71
:1010C0004FF2FF0213400A884C8822438C88C9885B
:1010D0000C4322431A43028210BD0021018041804B
:1010E0008180C1807047002904D0818941F400517A
:1010F00081817047818921F400518181704710B549
:1011000040F66A13C1F3421301F01F040121A1400C
:10111000012B07D0022B07D014303AB102680A43E2
:10112000026010BD0C30F8E71030F6E702688A4321
:10113000026010BD002A03D0828A0A43828270476F
:10114000828A8A4382827047028A22F00F020282D8
:10115000028A0A4302827047828922F400628281F5
:1011600082890A4382817047002904D0818941F035
:10117000020181817047818921F0020181817047DC
:10118000028A22F020020282028A0A430282704707
:10119000002904D0018A41F4804101827047018A0C
:1011A00021F4804101827047C1F3080181807047BA
:1011B0008088C0F308007047818941F00101818176
:1011C0007047028BD2B20283028B42EA0121018373
:1011D0007047028B02F47F420283028B0A43028330
:1011E0007047002904D0818A41F020018182704734
:1011F000818A21F0200181827047002904D0818AF0
:1012000041F0100181827047818A21F010018182B2
:101210007047002904D0818A41F00801818270471B
:10122000818A21F0080181827047002904D08189D8
:1012300041F40041818170478189C1F30E018181B0
:101240007047002904D0818A41F40061818270478F
:10125000818A21F4006181827047828A22F004022F
:101260008282828A0A4382827047002904D0818A5E
:1012700041F0020181827047818A21F0020181825E
:1012800070470246002012880A4200D001207047B1
:101290008A05C9430180704770B5002440F66A1280
:1012A000C1F3421301F01F05012606FA05F2012BD6
:1012B0000CD0022B0DD0838A1340090A8E4000887F
:1012C00030400BB100B10124204670BD838913402A
:1012D000F3E7038A1340F0E740F66A120A0A012195
:1012E0009140C943018070470038014000440040EC
:1012F00000480040004C00400050004070B58C4C4D
:10130000B4F8DC054FF00005000412D5B4F8DC0594
:10131000C0F30E0025542146864800F078FB04F205
:10132000DC5420886FF30E002080208820F40040D9
:101330002080814CB4F8DC05000412D5B4F8DC053B
:10134000C0F30E00255421467C4800F060FB04F2F7
:10135000DC5420886FF30E002080208820F40040A9
:10136000208070BD00F05AFA00F068FB00F0A8F988
:1013700000F0C3FA00F086FE02F016FA01F06FF9F1
:1013800000214FF4A073F022084600F0ADFE4FF4A8
:1013900000516B48FFF7F6FB01F0BBFC02F068FF61
:1013A00001F022FF674E002541F26F77B41FA0883D
:1013B000401CA080634801F0C6FFB6F90010B6F9E2
:1013C0000200494300FB0011B6F9040000FB0010C5
:1013D00005F0A1FD06F0EEF905F0C7FD81B2218010
:1013E00059A005F07DFF2088A0F54850C938B842C3
:1013F00011D26088401E80B26080002823D114235F
:10140000F0221946184600F06FFE142151A208463A
:1014100001F02DF817E01423F0221946184600F0C9
:1014200063FE142150A2084601F021F855495648A0
:1014300005F066FF0A2355A256A1534801F031F981
:1014400014206080A580A0880F280AD1A580524969
:101450004D4805F055FF0A234CA24EA14A4801F021
:1014600020F902F00EFCFFF749FFA0E710B5354C5C
:10147000A41FA088401CA080A01D01F064FFA21D35
:10148000B2F90010B2F90200494300FB0011B2F9B1
:10149000040000FB001005F03EFD06F08BF905F09E
:1014A00064FD81B2218028A005F01AFF208840F653
:1014B000B731A0F55850B138884210D26088401E2C
:1014C00080B2608010BB1423F0221946184600F049
:1014D0000BFE14211FA2084600F0C9FF16E01423DA
:1014E000F0221946184600F0FFFD14211EA20846FE
:1014F00000F0BDFF2349244805F002FF0A2323A280
:1015000024A1214801F0CDF814206080A0880F2884
:101510000DD10020A08020491B4805F0F1FEBDE858
:1015200010400A2319A21BA1174801F0BAB810BD38
:10153000F20700200048004014020020003801405B
:10154000002001402E00002053564D203A202564F3
:101550000D0A000066616C6C20646F776E203A2083
:101560006E6F726D616C000066616C6C20646F77E9
:101570006E2853564D29203A2061626E6F726D615C
:101580006C000000A87E00084C0100204E554C4C19
:10159000000000004F4B0000487F00087047FEE746
:1015A000FEE7FEE7FEE7704710B500F057F904F0DC
:1015B00047FC012803D0BDE8104005F034BA10BD47
:1015C00070B5374D40F225512846FFF765FE354C82
:1015D000B8B12846FFF7ECFDC2B2B4F8DC0540F222
:1015E000DB51C0F30E0088420BD2B4F8DC05B4F82E
:1015F000DC35C0F30E01481C60F30E03A4F8DC35A3
:10160000625440F224412846FFF746FE01280AD1E1
:10161000B4F8DC0540F40040A4F8DC052846BDE839
:101620007040FFF7C5BD70BD70B51F4D40F225512C
:101630002846FFF731FE1D4CB8B12846FFF7B8FD2C
:10164000C2B2B4F8DC0540F2DB51C0F30E008842B0
:101650000BD2B4F8DC05B4F8DC35C0F30E01481C3D
:1016600060F30E03A4F8DC35625440F224412846AE
:10167000FFF712FE012812D1B4F8DC0540F4004057
:10168000A4F8DC052846FFF793FD09A1074805F0FB
:101690004DFA08B1012000E000200849087070BD33
:1016A00000380140F20700200048004014020020EA
:1016B000434C4F5345440D0A0000000050000020E9
:1016C00038B501211420FFF7F4FB0120ADF800002C
:1016D00004248DF8034069464448FFF7E4F9E0022A
:1016E000ADF800008DF8034069464148FFF7DBF98B
:1016F00038BD70B504460D4629462046FFF72EFA40
:10170000012801D0002070BD29462046FFF726FAA7
:101710000128F9D0012070BD38B54FF44070FEF7B4
:101720002BFE06208DF8000001248DF803400725CC
:101730008DF801508DF802406846FEF722FE282001
:101740008DF800008DF8015002208DF802008DF810
:1017500003406846FEF715FE38BD2DE9FE43FFF74E
:10176000DBFF01210420FFF7A4FB01210846FFF75E
:10177000A0FB01211020FFF79CFB01210846FFF789
:1017800098FB0124ADF8084004278DF80B7002A9DE
:101790001648FFF788F900210846FFF740FA009441
:1017A0004FF000088DF8048008258DF805508DF85D
:1017B00006406846FEF74AFE6603ADF808608DF8FD
:1017C0000B7002A90A48FFF76EF90D210220FFF7FE
:1017D00026FA00968DF804808DF805508DF80640A5
:1017E0006846FEF733FEBDE8FE83000000080140B6
:1017F00000100140B0F1807F01D30120704720F03C
:101800007F414FF0E020491E41612D4AF0211170C7
:1018100000218161072101610020704710B529482E
:1018200029490068B0FBF1F0FFF7E4FF002800D081
:10183000FEE710BD01B52548009901604FF0E02199
:101840000A6942F001020A6101680029FCD108BD61
:101850001E49086008680028FCD170471B480168D1
:10186000002902D00168491E0160704701B5154882
:1018700017490068B0FBF1F0FFF7BCFF00204FF004
:10188000E02103E00A69D203FCD5401C009A904293
:10189000F8D308BD01B50B484FF47A710068B0FB6E
:1018A000F1F0FFF7A7FF00204FF0E02103E00A6905
:1018B000D203FCD5401C009A9042F8D308BD00002A
:1018C00023ED00E000000020A0860100340000208D
:1018D00040420F0008B54FF4A060FEF74DFD2520F3
:1018E0008DF8000001208DF801008DF802008DF8C0
:1018F00003006846FEF745FD08BD10B586B001211E
:101900000420FFF7D6FA01218803FFF7D2FA4FF43B
:101910000070ADF8140018208DF8170003208DF822
:101920001600444C05A92046FFF7BDF82115ADF877
:10193000141004218DF8171005A92046FFF7B3F8FD
:101940004FF4E13001900020ADF80800ADF80A0036
:10195000ADF80C00ADF810000C20ADF80E00364CC0
:1019600001A92046FFF744FBFFF7B4FF012240F234
:1019700025512046FFF7C3FB012240F224412046B7
:10198000FFF7BDFB01212046FFF7ADFB06B010BD00
:1019900010B504462046FFF707FC80212046FFF7DC
:1019A00070FC0028F9D010BD70B50446224DE1B29C
:1019B0002846FFF7F9FB80212846FFF762FC002844
:1019C000F9D0204670BD10B51B4C20212046FFF7F2
:1019D00058FC0028F9D02046BDE81040FFF7E8BBCE
:1019E0002DE9F04107460D461646002405E0295D25
:1019F0003846FFF7CDFF641CE4B2B442F7D3402170
:101A00003846FFF73EFC0028F9D0BDE8F08170B5FC
:101A100006460D4600243046295DFFF7B9FF641CD9
:101A2000285D0028F7D140213046FFF72AFC002826
:101A3000F9D070BD000801400038014038B50121DF
:101A40000820FFF736FA2020ADF8000010208DF8AE
:101A5000030003208DF80200124C69462046FFF770
:101A600022F80121ADF8001069462046FFF71BF867
:101A70000221ADF8001069462046FFF714F8202136
:101A80002046FFF77FF801212046FFF77BF802216F
:101A90002046FFF777F838BD02492020143108604E
:101AA00070470000000C014001B502E00098401EA4
:101AB000009000980028F9D108BD2DE9F84F0121C8
:101AC0004FF4B070FFF7F5F903248DF802401825A4
:101AD0008DF803504FF48047ADF800706946FE481A
:101AE000FEF7E1FF4FF40048ADF800806946FA4880
:101AF000FEF7D9FF0120ADF800006946F648FEF771
:101B0000D2FF0220ADF800006946F348FEF7CBFF94
:101B10008020ADF800006946F048FEF7C4FF4FF49E
:101B20008079ADF800906946EC48FEF7BCFF4FF4B1
:101B3000007AADF800A06946E848FEF7B4FF4FF41C
:101B4000806BADF800B06946E448FEF7ACFFFE10CC
:101B5000ADF800606946E148FEF7A5FF7000ADF8FA
:101B600000006946DD48FEF79EFFB000ADF80000BA
:101B70006946DA48FEF797FFADF800706946D74826
:101B8000FEF791FFADF800806946D448FEF78BFF61
:101B9000ADF800906946D048FEF785FFADF800A08B
:101BA0006946CD48FEF77FFFADF800B06946CA48E8
:101BB000FEF779FF8DF802408DF803501025ADF83F
:101BC00000506946C448FEF76EFF2020ADF80000C3
:101BD0006946C148FEF767FF2802ADF80000C04F14
:101BE00069463846FEF75FFF0420ADF800006946FD
:101BF000BA48FEF758FF8DF803508DF80240ADF853
:101C0000006069463846FEF74EFF8DF803508DF8A8
:101C100002404020ADF8000069463846FEF743FF19
:101C2000BDE8F88F00B597B03C2108A804F073FF19
:101C30001C2101A804F06FFF01210802FFF72EF913
:101C4000012001900420039080060790002002905C
:101C500004900590069006210891099008210A91A8
:101C600010210B910C900E900F9010900902119181
:101C700012901390149001A81590169008A8FEF7E2
:101C800084FC01210620FEF7B4FD17B000BD10B59D
:101C900004204FF0D84420804FF0DA4108880888AB
:101CA00008884FF6FF7303EA002208881043A0F566
:101CB0000542523A0DD0D320208008880888088831
:101CC00003EA002208881043A0F51341413900D0EF
:101CD000002010BD10B5FFF7DAFF8249C880824AA4
:101CE000A0F513434FF0D8444FF0DA41413B7DD08B
:101CF000A0F50543523B7AD1CF20208000200880F8
:101D0000C120088030200880ED20208064200880D9
:101D1000032008801220088081200880E82020808D
:101D2000852008801020088078200880CB20208023
:101D3000392008802C20088000200880342008806A
:101D400002200880F720208020200880EA202080C0
:101D5000002008800880C020208021200880C12029
:101D6000208011200880C52020802D20088033206D
:101D7000088036202080002008803A2020805520CE
:101D80000880B12020800020088017200880B6201D
:101D900020800A200880A2200880F62020800120D0
:101DA000088030200880F220208000200880262033
:101DB000208001200880E0202080D02008800020A2
:101DC000088002200880072008800B2008801A2045
:101DD0000880312008805420088040200880292075
:101DE0000880122008800880088001E02AE028E0AE
:101DF00017200880E1202080D02008800020088063
:101E000002200880072008800520088025200880FF
:101E10002D20088044200880452008801C20088050
:101E200018200880162008801C2008801D200880AB
:101E3000112020801046FFF737FE292020802C201B
:101E4000208010BDCF2020800020088081200880C5
:101E500030200880ED202080642008800320088046
:101E60001220088081200880E820208085200880BA
:101E70001020088078200880CB202080392008801E
:101E80002C2008800020088034200880032008804F
:101E9000F720208020200880EA2020800020088071
:101EA0000880B1202080002008801B200880B620F8
:101EB00020800A200880A2200880C02020803520B1
:101EC0000880C120208011200880C5202080452066
:101ED00008800880C72009E0001401400018014074
:101EE0000020014038000020FCBF02002080A2201A
:101EF0000880F220208000200880262020800120F9
:101F00000880E02020800F200880262008802420E0
:101F100008800B2008800E200880092008805420AB
:101F20000880A8200880462008800C200880172000
:101F30000880092008800F200880072008800020E2
:101F40000880E120208000200880192008801B20C4
:101F500008800420088010200880072008802A209C
:101F60000880472008803920088003200880062048
:101F70000880088030200880382008800F200880E2
:101F800036202080C82008802A2020800020088059
:101F900008800880EF2008802B2020800020088007
:101FA0000880012008803F2008803A2020805520AA
:101FB0000880112020801046FFF776FD2920208020
:101FC00010BD30B507283CD8F94B1870C4074FF046
:101FD000F0014FF4A07215D05A80998036214C063A
:101FE0002180DA884FF0DA41A2F51345413D04D053
:101FF000A2F50545523D08D009E0082242EA40100A
:10200000088004E059809A80E8E7400108802A208F
:1020100020800020088008805888401EC0F30722D6
:102020000A80C0B208802B20208000200880088011
:102030009888401EC0F307220A80C0B208802C2076
:10204000208030BD70B5DB4D4FF40064214628463A
:10205000FEF79AFD40F6FF263046FFF725FD2146A4
:102060002846FEF78FFD3046BDE870401CE5D14A9A
:10207000002803D040211046FEF786BD40211046BF
:10208000FEF780BD10B5FFF718FDFFF7CBFD01206F
:10209000FFF7EDFFFFF7D6FFFFF71CFEC4480078FF
:1020A000BDE810408DE770B52A244FF0D846348043
:1020B000050A4FF0DA442580C5B225801044401E41
:1020C000020A2280C0B220802B203080080A2080A3
:1020D000C8B22080C818401E010A2180C0B22080EA
:1020E00070BD01231A46DEE770B514461D462B4627
:1020F0002246FFF7D8FFAE4904FB05F04989BDE849
:10210000704000F01DBA10B5A94C628890420AD206
:10211000A288914207D2FFF7E4FF2189BDE8104071
:10212000012000F00DBA10BD2E204FF0D8410880DC
:102130004FF0DA4108880888098800F478424FF4A3
:10214000FC6303EAC000024342EAD120704710B5A5
:10215000FFF7C7FFBDE81040E6E72DE9FE4F002579
:102160000026171AA3EB010882468B46681E002F33
:1021700003DD4FF00101019107E003D14FF00001B1
:10218000019102E00190C7F10007B8F1000F03DDF3
:102190004FF00100009007E003D14FF000000090E5
:1021A00002E00090C8F10008474501DD3C4600E030
:1021B00044464FF00009601C029017E05946504613
:1021C000FFF7A1FF3D444644A54204DD2D1B0198C5
:1021D00050441FFA80FAA64204DD361B009858448A
:1021E0001FFA80FB09F101091FFA89F9029881455C
:1021F000E4DDBDE8FE8F2DE9F041064606980F4666
:1022000014461D4600280DD02B462246394630463E
:10221000FFF749FF664904FB05F00989BDE8F04175
:1022200000F08EB93444641EA2B23B4639463046B3
:10223000FFF793FF3D446D1EABB2A2B2A9B2304688
:10224000FFF78BFFABB2324639463046FFF785FFCA
:10225000ABB2A2B2A0B23946BDE8F0417DE72DE9AC
:10226000FF4F85B007468846002416B20320A0EB36
:1022700042000FFA80F994E00898E8B3254642E05E
:10228000381908EB050A04901FFA8AF180B2FFF7AB
:102290003AFF1FFA8AF1A7EB040A1FFA8AF0FFF748
:1022A00032FF08EB040081B2A7EB050B03901FFA85
:1022B0008BF0FFF728FFA8EB040081B202901FFA11
:1022C0008BF0FFF720FFA8EB050B1FFA8BF11FFA2D
:1022D0008AF0FFF718FF04981FFA8BF180B2FFF71E
:1022E00012FF029807EB050A81B21FFA8AF0FFF786
:1022F0000AFF039881B200E008E01FFA8AF0FFF7B6
:1023000002FF6D1C2DB2B542BADD37E0381908EB7B
:1023100006050190A9B280B2FFF7F5FEA7EB040A0B
:10232000A9B21FFA8AF0FFF7EEFE08EB040081B2B3
:10233000A7EB060B00901FFA8BF0FFF7E4FEA8EB6B
:102340000405A9B21FFA8BF0FFF7DDFEA8EB060B20
:102350001FFA8BF11FFA8AF0FFF7D5FE01981FFADA
:102360008BF180B2FFF7CFFEA9B2BD19A8B2FFF77B
:10237000CAFE009881B2A8B2FFF7C5FE641C24B261
:10238000B9F1000F05DA09EB8400801D0FFA80F91E
:1023900007E0A01B09EB80000A300FFA80F9761ED7
:1023A00036B2B4427FF768AF09B0BDE8F08F0000E5
:1023B00038000020002001402DE9F043203A97B278
:1023C000664EF568AA88EB8802FB03F44FEAE47CCA
:1023D00004EB5C74C4F3C7042D6807FB0455FFF7D6
:1023E00062FE2C204FF0D841088000214FF0DA4CDB
:1023F00015E0002033897289802715F8018027FABB
:1024000000F918EA090F02D0ACF8003001E0ACF88E
:102410000020401CC0B20828EFD3491CC9B2A14219
:10242000E7D3BDE8F083F0B505460E4600244B4FD8
:1024300019E0F8687B8881882144994203D90024F7
:10244000C18829448DB2C088B9882844884201D9FE
:102450000024002529462046FFF7AEFF761CF868C9
:102460008088204484B23278002AE2D1F0BDF0B5F1
:1024700004460D461646394F19E0F8687B88818876
:102480002144994203D90024C18829448DB2C088CF
:10249000B9882844884201D90024002529462046CD
:1024A000FFF78AFF761CF8688088204484B232786F
:1024B000002AE2D1F0BDF0B505460C461646274F7E
:1024C00019E0F868BB88C1882144994203D90024E7
:1024D000818829448DB2808879882844884201D92E
:1024E0000025002421462846FFF766FF761CF86881
:1024F000C088204484B23278002AE2D1F0BD174966
:10250000C86070471548C0687047144A10815181EF
:102510007047124A138903805089088070470F4919
:10252000088170470D494881704710B50146FFF793
:10253000E9FFC38809484288BDE810400020D3E580
:1025400010B500222C234FF0D84423804FF0DA43FB
:1025500001E01980521C8242FBD310BD38000020DC
:1025600008B54FF4A060FDF707FF27208DF80000A5
:1025700000208DF801008DF8020001208DF8030085
:102580006846FDF7FEFE08BD10B586B0012188043F
:10259000FEF79AFC01210820FEF78BFC4FF48060C7
:1025A000ADF8140018208DF8170003208DF81600E0
:1025B000F94C05A92046FEF776FAE114ADF814109F
:1025C00004218DF8171005A92046FEF76CFA4FF488
:1025D000E13001900020ADF80800ADF80A00ADF838
:1025E0000C00ADF810000C20ADF80E00EB4C01A96A
:1025F0002046FEF7FDFC012240F225512046FEF761
:102600007EFD012240F224412046FEF778FDFFF7CF
:10261000A7FF01212046FEF766FD06B010BD38B5C4
:1026200001210C022046FEF744FC6101ADF80010C8
:1026300010218DF8031003218DF80210D84D694642
:102640002846FEF730FA01212046FEF732FCA001B1
:10265000ADF8000069462846FEF725FA38BD10B5EA
:10266000FFF7DDFFFFF790FFCD4C4FF48041204690
:10267000FEF788FA61142046BDE81040FEF784BAE0
:1026800070B5C74D4FF4804421462846FEF77CFACA
:10269000C44801F099F821462846BDE87040FEF78D
:1026A00071BA2DE9F0410D4616461F46BE4CB4F8EE
:1026B000DC156FF30E01A4F8DC150246BBA1B74888
:1026C00000F0FEFF55EA060020D04FF47A70784300
:1026D00001F07AF8B4F8DC150020C1F30E01605463
:1026E0002146B4A004F0FCFD04F2DC5420886FF312
:1026F0000E002080208820F4004020808DB186B11B
:102700002946A94804F012FA48B902E00120BDE8C0
:10271000F0813146A44804F009FA0028F7D00120DE
:10272000F5E73DB12946A04804F000FA0028EED0B4
:102730000120ECE731469C4804F0F8F90028E6D087
:102740000120E4E770B500244FF480419448FEF77F
:1027500019FA99A004F0C4FD9B4801F035F84FF434
:10276000FA7514E0214699A004F0BAFD2B46002228
:102770009CA19DA0FFF795FF28B121469BA004F0E6
:10278000AFFD012070BDFFF77BFF641CE4B20A2C93
:10279000E8D3002070BD40F6C413002805D00128FE
:1027A00007D0022809D00020704797A28DA199A0D8
:1027B00077E795A28BA19AA073E793A289A19BA02A
:1027C0006FE700B59FB00B4602469BA101A804F03D
:1027D00097FD41F28833002282A101A8FFF761FF33
:1027E0001FB000BD00B59FB00B460092024697A1F6
:1027F00001A804F085FD4FF47A73002279A101A8A5
:10280000FFF74FFFECE700B585B0002801D00122AB
:1028100000E0002293A1684604F072FD4FF4FA73C1
:10282000002270A16846FFF73CFF05B000BDF0B57F
:10283000B9B004460F4615461E46642120A804F090
:102840006AF914B1012C0FD107E03B4689A28AA195
:1028500020A8009504F054FD06E03B468AA286A11C
:1028600020A8009504F04CFD052E06D220AB324680
:1028700086A102A804F044FD04E020AA88A102A8D1
:1028800004F03EFD4FF47A6389A256A102A8FFF737
:1028900008FF39B0F0BD30B5BDB015464FF4FA743D
:1028A00000281DD00B46012285A11FA804F028FD99
:1028B0002A4688A101A804F023FD2346002249A14D
:1028C0001FA8FFF7EEFE48B12346002245A101A84C
:1028D000FFF7E7FE10B101203DB030BD0020FBE75F
:1028E0000B46002276A11FA804F00AFD2346002211
:1028F0003CA11FA8FFF7D5FEEEE710B54FF4FA7321
:10290000002238A177A0FFF7CCFEA0B179A126481C
:1029100004F00CF908B1022010BD79A1224804F09E
:1029200005F908B1032010BD78A11F4804F0FEF896
:1029300008B1042010BD002010BD10B500244FF4D4
:10294000FA73002227A167A0FFF7ABFE002822D070
:1029500071A1154804F0EAF800B1012472A11248EF
:1029600004F0E4F810B144F0020401E024F00204A1
:1029700071A10D4804F0DAF810B144F0040401E04C
:1029800024F0040470A1084804F0D0F810B144F019
:102990000804E3E0E0E0EBE0000C01400048004008
:1029A0000020014020A107001402002025730D0A19
:1029B00000000000257300000D0A4154B2E2CAD4A1
:1029C0002E2E2E2E2E0D0A0080841E000D0A41543C
:1029D000B2E2CAD4B4CECAFD2025642E2E2E2E2EED
:1029E0002E0D0A004F4B0000415400000D0A4154C7
:1029F000B2E2CAD4C6F4B6AFB3C9B9A62025642ED4
:102A00002E2E2E2E2E0D0A006E6F206368616E67CB
:102A10006500000041542B43574D4F44453D310064
:102A200041542B43574D4F44453D320041542B43B5
:102A3000574D4F44453D330041542B43574A415075
:102A40003D222573222C22257322000041542B4362
:102A5000575341503D222573222C222573222C31BD
:102A60002C25640041542B4349504D55583D256455
:102A70000000000054435000222573222C222573AD
:102A8000222C2573000000005544500041542B4374
:102A9000495053544152543D25642C257300000085
:102AA00041542B43495053544152543D2573000027
:102AB000414C5245415920434F4E4E45435400002E
:102AC00041542B4349505345525645523D25642CA1
:102AD0002573000041542B43495053544F3D2573F7
:102AE0000000000041542B43495053544154555366
:102AF000000000005354415455533A320D0A00006F
:102B00005354415455533A330D0A00005354415421
:102B100055533A340D0A00002B4349505354415445
:102B200055533A302C0000002B4349505354415424
:102B300055533A312C0000002B4349505354415413
:102B400055533A322C0000002B4349505354415402
:102B500055533A332C00000024F00804E3A1E74861
:102B600003F0E4FF10B144F0100401E024F010047D
:102B7000204610BD70B504460D464FF4FA7300228E
:102B8000AFF2A011DEA0FFF78CFDE0A1DB4803F05F
:102B9000CDFF10B1801D002207E0002070BD835CD6
:102BA000A354222B05D0521CD2B2AA42F7D3012043
:102BB00070BD0020A054FAE710B54FF4FA74234614
:102BC0000022AFF2E011D3A0FFF76BFD38B123462E
:102BD000D4A2AFF2F011BDE81040D3A061E500200F
:102BE00010BD10B5D34800F0EFFDD3A1D34800F0DD
:102BF00067FDBDE81040D24800F0E6BD30B50446A0
:102C000085B00D461846002C08D02A46AFF25C214C
:102C1000CA4800F055FD012005B030BD052806D298
:102C2000931C0246C7A1684604F06AFB04E0921CAC
:102C3000C9A1684604F064FB64230022CAA1684667
:102C4000FFF72FFD4FF4FA730022C8A12846FFF7C3
:102C500028FDE1E710B50024A849B1F8DC256FF3A1
:102C60000E02A1F8DC25B1F8DC2522F40042A1F81F
:102C7000DC25B1F8DC251204FBD5B1F8DC350022E7
:102C8000C3F30E03CA5408B19C4C05E0B9A19B489C
:102C900003F04CFF00B1994C204610BD70B50646BC
:102CA0000024B64D304655F8241003F03FFF18B904
:102CB000641CE4B2082CF5D3B14B02200121202280
:102CC0001D1F082C08D2DFE804F004080C101418AB
:102CD0001C201A602960286070BD2A601960286075
:102CE00070BD2A602960186070BD1A601960286084
:102CF00070BD1A602960186070BD2A601960186084
:102D000070BD1A601960186070BD2A602960286063
:102D100070BD10B59BA004F0E3FAA1A004F0E0FAA6
:102D20004FF40051A448FDF72DFFFFF70BFD0028DD
:102D3000FBD0A2A004F0D4FA0020FFF72CFD00285D
:102D4000FAD0A6A004F0CCFAABA1AEA0FFF739FDF3
:102D50000028F9D0AFA004F0C3FA0020FFF753FD1C
:102D60000028FAD0B1A004F0BBFAB94BB9A2BEA1B9
:102D7000C84804F0C5FA4FF4FA73C7A2AFF29C3109
:102D8000C448FFF78EFCC6A004F0AAFAC148CD499A
:102D9000FA3004F0B5FA4FF4FA642346CAA2AFF24F
:102DA000BC31BC48FA30FFF77CFCC9A004F098FAAB
:102DB000CF49D04804F0A4FA2346C3A2AFF2DC31D5
:102DC000CC48FFF76EFCBDE81040CBA004F088BAF9
:102DD00070B5CF4DB5F8DC05000421D50024574E61
:102DE0000BE0295D3046FEF7DFF940213046FEF763
:102DF00048FA0028F9D0641CA4B2B5F8DC05C0F389
:102E00000E00A042EDD805F2DC5528886FF30E00C5
:102E10002880288820F400402880BD48FFF73EFF26
:102E2000364DB5F8DC05000421D50024B94E0BE081
:102E3000295D3046FEF7B8F940213046FEF721FA09
:102E40000028F9D0641CA4B2B5F8DC05C0F30E006C
:102E5000A042EDD805F2DC5528886FF30E002880DB
:102E6000288820F4004028802448FFF717FF4348B3
:102E7000001F007800281FD0FFF7B3FEFFF73DFDCD
:102E80000028FBD0042813D1A3A004F029FA5AA1EA
:102E90005CA0FFF796FC0028F9D00523A6A2A8A104
:102EA0000020FFF7C4FC0028F7D0B1A004F018FA06
:102EB000FFF782FE0028FBD070BD00B5FFB00B46C7
:102EC00000920246B1A102A804F01AFA02A9AFF2D8
:102ED0001C5004F005FA4FF47A736FA2AFF2FC4174
:102EE00002A8FFF7DEFB7FB000BD00002B43495076
:102EF0005354415455533A342C000000140200201E
:102F000041542B4349465352000000004150495060
:102F10002C22000041542B4349504D4F44453D3134
:102F2000000000003E00000041542B43495053452F
:102F30004E44000040420F002B2B2B000048004065
:102F400020A1070041542B43495053454E443D2591
:102F5000642C25640000000041542B434950534524
:102F60004E443D25640000003E20000053454E4481
:102F7000204F4B002B49504400000000540000201B
:102F8000140C01400D0AD5FDD4DAC5E4D6C32045A2
:102F9000535038323636202E2E2E2E2E2E0D0A006D
:102FA0000D0ACAB9C4DC2045535038323636202EBB
:102FB0002E2E2E2E2E0D0A00002001400D0AD5FDCA
:102FC000D4DAC5E4D6C3B9A4D7F7C4A3CABD205385
:102FD0005441202E2E2E2E2E2E0D0A000D0AD5FD28
:102FE000D4DAC1ACBDD32057694669202E2E2E2ECF
:102FF0002E2E0D0A00000000736B64313233313421
:103000000000000054502D4C494E4B5F3741323286
:10301000000000000D0AB2BBD4CAD0EDB6E0C1ACCE
:10302000BDD3202E2E2E2E2E2E0D0A000D0AD5FDDC
:10303000D4DAC5E4D6C34D515454D3C3BBA7C3FBA4
:10304000C3DCC2EB202E2E2E2E2E2E0D0A000000E9
:10305000EC80000844303031266976386E32536F88
:10306000563976440000000041542B4D51545455BC
:103070005345524346473D302C312C224E554C4C43
:10308000222C222573222C222573222C302C302C2A
:1030900022220000D00D00204552524F5200000065
:1030A0000D0AD5FDD4DAC5E4D6C34D51545420439E
:1030B0006C69656E744944202E2E2E2E2E2E0D0A1C
:1030C00000000000E87F00084E554C4C0000000056
:1030D0000D0AD5FDD4DAC1ACBDD3B0A2C0EFD4C6C1
:1030E000B7FECEF1C6F7202E2E2E2E2E2E0D0A0064
:1030F0004C800008C40F00200D0AC5E4D6C320454B
:1031000053503832363620CDEAB1CF0D0A000000D8
:10311000F2070020003801400D0AD5FDD4DAD6D8D8
:10312000C1ACC8C8B5E3BACDB7FECEF1C6F7202E04
:103130002E2E2E2E2E0D0A003138383300000000BE
:10314000696F742D30367A3030686A646374316F19
:1031500070387A2E6D7174742E696F746875622E72
:10316000616C6979756E63732E636F6D000000008A
:103170000D0AD6D8C1ACC8C8B5E3BACDB7FECEF1FA
:10318000C6F7B3C9B9A60D0A0000000041542B4D83
:10319000515454555345524346473D30A3AC31A397
:1031A000AC222573222C222573222C22257322A3E4
:1031B000AC302C30A3AC000070B505460C4600F0D6
:1031C0002BF9D02000F098F900F06FF9284600F0B4
:1031D00093F900F06AF9204600F08EF900F065F9E5
:1031E000BDE8704000F0E1B810B500F0F3F8002140
:1031F0004FF47A720020401C9042FCDB491C914243
:10320000F8DB00216B20FFF7D7FF07211920FFF71C
:10321000D3FF06211A20FFF7CFFF00211C20FFF764
:10322000CBFF18211B20FFF7C7FF01213820FFF734
:10323000C3FF8021BDE810403720BDE770B50446CC
:103240000D46164600F0E8F8D02000F055F900F0E1
:103250002CF9204600F050F900F027F900F0DCF8D6
:10326000D12000F049F900F020F90024761E06E094
:10327000012000F06AF905F8010B641CE4B2B442C5
:10328000F6DDBDE8704000F090B808B50020009071
:10329000012269467520FFF7D1FF9DF800106829CB
:1032A00004D0374804F01CF8002008BD35A004F015
:1032B00017F8012008BD38B50446022269464120AE
:1032C000FFF7BCFF9DF801109DF8002041EA0221A4
:1032D000218038BD38B50446022269464120FFF7F7
:1032E000ADFF9DF801009DF8001040EA012000B2FA
:1032F00003F011FE0022284B03F099FD274A284BCA
:1033000003F0EEFC03F04AFE206038BD1CB5044615
:10331000062269464320FFF791FF9DF801009DF8C2
:10332000001040EA012020809DF803009DF8021063
:1033300040EA012060809DF805009DF8041040EAF5
:103340000120A0801CBD1CB50446062269463B2016
:10335000FFF774FF9DF801009DF8001040EA01207E
:1033600020809DF803009DF8021040EA0120608053
:103370009DF805009DF8041040EA0120A0801CBDC6
:10338000308100084D505536303530204944203DBD
:10339000202523780D0A000000407540A4703D0AE6
:1033A000D74342400220FEF745BA10B5AC4C80210D
:1033B0002046FDF7E9FBFFF7F5FF40212046FDF72A
:1033C000E1FBFFF7EFFF80212046FDF7DBFBBDE8C7
:1033D0001040E7E738B501210820FDF76AFD10200D
:1033E0008DF803004020ADF8000003248DF8024062
:1033F0009B4D69462846FDF756FB14218DF80310B6
:103400008021ADF800108DF8024069462846FDF78E
:103410004AFBFFF7CAFF38BD10B5914C402120464A
:10342000FDF7B0FB80212046FDF7ACFBFFF7BAFFAC
:1034300080212046FDF7A8FBFFF7B4FF402120467E
:10344000FDF7A2FBBDE81040ACE710B5844C80212D
:103450002046FDF799FBFFF7A5FF40212046FDF729
:1034600091FBFFF79FFF40212046FDF78DFBFFF703
:1034700099FF80212046FDF785FBBDE8104091E7CC
:1034800010B5774C80212046FDF77CFBFFF78AFFC3
:1034900040212046FDF776FBFFF784FF40212046C0
:1034A000FDF772FBBDE810407CE770B500240025F5
:1034B0006B4E80213046FDF765FBFFF773FF40211F
:1034C0003046FDF75FFBFFF76DFF07E0641CE4B2D9
:1034D000FA2C03D9FFF769FF012505E0802130466A
:1034E000FDF73CFB0028F1D140213046FDF74CFBB5
:1034F000FFF758FF284670BD70B505460024584EAA
:10350000280604D580213046FDF73CFB03E08021EE
:103510003046FDF739FBFFF745FF40213046FDF708
:1035200031FBFFF73FFF40213046FDF72DFBFFF752
:1035300039FF6806050E641CE4B2082CE0D330465F
:10354000BDE870408021FDF71DBB2DE9F041074625
:1035500000240025424E6006040E40213046FDF74F
:1035600011FBFFF71FFF80213046FDF7F7FA08B186
:10357000641CE4B240213046FDF706FBFFF712FF62
:103580006D1CEDB2082DE6D327B1FFF75EFF204694
:10359000BDE8F081FFF774FFF9E72DE9F04104463B
:1035A0000F4616461D46FFF737FF6006000EFFF771
:1035B000A3FFFFF77AFF18B1FFF7F7FE0120E7E757
:1035C0003846FFF799FFFFF770FF00240BE0285DF6
:1035D000FFF792FFFFF769FF18B1FFF7E6FE012042
:1035E000D6E7641CE4B2B442F1D3FFF7DEFE00205C
:1035F000CEE72DE9F04106460F4615461C46FFF77B
:103600000BFF7006000EFFF777FFFFF74EFF18B1B4
:10361000FFF7CBFE0120BBE73846FFF76DFFFFF752
:1036200044FFFFF7F9FE012000EB4600C0B2FFF7B0
:1036300063FFFFF73AFF08E0012D0CD00120FFF7F0
:1036400084FF20706D1EEDB2641C002DF4D1FFF7D5
:10365000ACFE00209CE70020FFF777FF2070F1E729
:10366000000C0140F0B503460025084600260A2A52
:1036700001D00670F0BD002B1DD005DA4FF02D02F1
:1036800000F8012BC3F1000342F210724FF00A0759
:1036900093FBF2F454EA050C06D004F1300500F86F
:1036A000015B04FB1233012592FBF7F2002AEFDCE9
:1036B00006700846F0BD3022027046700846F0BD24
:1036C0000FB430B585B005460AA800900EE05C291D
:1036D00014D025292CD0521C28460992FDF764FDF0
:1036E00080212846FDF7CDFD0028F9D0099A1178F0
:1036F0000029ECD105B030BC5DF814FB521C0992D6
:1037000010786E280CD0722802D0521C0992E7E77C
:103710000D212846FDF748FD0998401C0990DFE778
:103720000A212846FDF740FD0998401C0990D7E77B
:10373000521C09921078642819D0732802D0521CA8
:103740000992CDE7009810C8009009E02846FDF7DF
:103750002BFD80212846FDF794FD0028F9D0641C3C
:1037600021780029F2D10998401C0990B8E7009807
:1037700000990068091D00910A2201A9FFF772FF54
:1037800001AC09E02846FDF70FFD80212846FDF732
:1037900078FD0028F9D0641C21780029F2D109981D
:1037A000401C09909CE700001648016841F08071B8
:1037B0000160154800214160016841F0010101608C
:1037C000704711484068704701B500210F48104A02
:1037D0000068B0FBF2F300984343FFF7F2FF0246A4
:1037E000FFF7EFFF9042FBD003D9A0EB0202114498
:1037F00003E06FEA02020244114402469942EFD309
:1038000008BD0000FCED00E0001000E0000000201A
:1038100040420F000020401CC0B21E28FBD370475E
:1038200070B56A4880240460684D40202D1F2860D0
:10383000FFF7F0FF2C60BDE87040EBE738B50121E1
:103840000820FDF736FB03208DF8020014208DF8C8
:1038500003004020ADF800005C4C6946143C204653
:10386000FDF721F98021ADF8001069462046FDF7EB
:103870001AF9FFF7D5FF38BD70B554488024001FF2
:10388000046040250560FFF7C5FF504E3460FFF728
:10389000C1FF3560BDE87040BCE72DE9F047054643
:1038A0000024DFF8289140264FF08008A9F1040792
:1038B000280602D5C7F8008001E0C9F80080FFF7AC
:1038C000A9FF3E60FFF7A6FFC9F80060072C01D1F1
:1038D000C7F800806806050EFFF79CFF641CE4B281
:1038E000082CE5D3BDE8F0872DE9F047002400253A
:1038F000364EDFF8D880361FDFF8D090A8F10C08DC
:1039000040276006040E3760FFF784FFD8F80000F8
:10391000000601D5641CE4B2C9F80070FFF77AFF15
:103920006D1CEDB2082DECD32046DBE770B5274EB9
:1039300080203060FFF76EFF301F40250560FFF7E5
:1039400069FF22480C380068C0F3C0143560FFF7E7
:1039500061FF204670BD2DE9F0411C4D80242C6094
:10396000FFF758FF2F1F40263E60FFF753FF2E60E2
:10397000FFF750FF3C60BDE8F08170B5134D80202B
:103980002D1F2860FFF746FF40242C60FFF742FF01
:10399000281D0460BDE870403CE710B504460B49A3
:1039A0000C390A6812060ED5096849060BD5FFF7CF
:1039B00063FF2046FFF771FFFFF7B8FF0446FFF7EC
:1039C0002FFF204610BD012010BD0000140801404B
:1039D00070B505460C46FFF74FFFAE20FFF75DFFC1
:1039E000FFF7A4FF18B1FEA003F07AFC12E028460E
:1039F000FFF753FFFFF79AFF18B1FBA003F070FC2D
:103A000008E02046FFF749FFFFF790FF30B1F8A02C
:103A100003F066FCFFF704FF002070BDFFF700FF16
:103A2000012070BD70B505460C46FFF725FFAE209E
:103A3000FFF733FFFFF77AFF18B1EFA003F050FC58
:103A400014E02846FFF729FFFFF770FF18B1EBA03D
:103A500003F046FC0AE0FFF70FFFAF20FFF71DFF62
:103A6000FFF764FF30B1E6A003F03AFCFFF7D8FEA1
:103A7000002070BDFFF738FF2070FFF77EFFFFF7D3
:103A8000CFFE012070BD10B5C0210220FFF7A0FFBE
:103A9000002840D000210320FFF79AFF00283FD0E4
:103AA00000210420FFF794FF00283ED000210520CC
:103AB000FFF78EFF00283DD000210620FFF788FF8A
:103AC00000283CD06F210820FFF782FF00283BD060
:103AD00003210920FFF77CFF00283AD02F210A207C
:103AE000FFF776FF002839D017210C20FFF770FF71
:103AF000002838D017210D20FFF76AFF002837D0A3
:103B00007F211020FFF764FF002836D0BDA003F00E
:103B1000E7FB012010BDC1A003F0E2FB002010BDB7
:103B2000C4A003F0DDFB002010BDC8A003F0D8FB4B
:103B3000002010BDCCA003F0D3FB002010BDD1A00D
:103B400003F0CEFB002010BDD54803F0C9FB0020D8
:103B500010BDD44803F0C4FB002010BDD24803F0D0
:103B6000BFFB002010BDD1A003F0BAFB002010BDA8
:103B7000D9A003F0B5FB002010BDE2A003F0B0FB1C
:103B8000002010BDF8B504460D46002028602060D6
:103B90006946FFF747FF69460120FFF743FFFFF73C
:103BA0006BFEAE20FFF779FEFFF7C0FE18B1E1A073
:103BB00003F096FB14E00720FFF76FFEFFF7B6FE59
:103BC00018B1DEA003F08CFB0AE0FFF755FEAF2032
:103BD000FFF763FEFFF7AAFE30B1DAA003F080FB27
:103BE000FFF71EFE0020F8BDFFF77EFE0646FFF73A
:103BF000B2FE3004216808442060FFF775FE0646D7
:103C0000FFF7A9FE3002216808442060FFF76CFE30
:103C10000646FFF7A0FE206830442060FFF764FEF0
:103C20000646FFF798FE3004296808442860FFF72D
:103C30005BFE0646FFF78FFE3002296808442860C5
:103C4000FFF752FE0646FFF786FE286830442860DC
:103C50002068C0F3110020602868C0F311002860BC
:103C6000FFF7DEFD0120F8BD10B540210920FFF768
:103C7000AFFE08B1012010BDB4A003F031FB00205D
:103C800010BD2DE9FE4FB44E0024B448B060F4607E
:103C9000F06A401CF0623220B062B14F07F5167531
:103CA000B06AA0F1320255F8201045F8221057F8FA
:103CB000201047F8221055F82010B268914200D227
:103CC000B160F268914200D9F160401CB062962860
:103CD000E6DB6420B062DFF88CA2B06A411E55F8C2
:103CE0002110316307EB800105EB8000FFF74AFFED
:103CF000D6F82880316B55F82800884220D9401A20
:103D000003F004F98146D6E90210401A03F0FEF8E8
:103D10000146484602F0A6FF514602F071FF814677
:103D2000706B03F0F3F8494602F064FF306410F161
:103D3000FF4F01D374631DE003F0FEF8706319E0D8
:103D4000081A03F0E3F88146D6E90210401A03F09E
:103D5000DDF80146484602F085FF514602F050FF6B
:103D6000306403F0E9F8716B08447063FF2801D9EF
:103D7000FF20706308F10108C6F82880B8F1960F9B
:103D8000ABDB7548401C00F13B01421ECDE9002130
:103D900002900B1F744A7248716800F087FB7078BC
:103DA0000C274FF001094FF00E0A4FF0080B4FF0AF
:103DB0000408012811D1F06BBE280EDA28280CDD8A
:103DC000B4463461DCF81410684B042906D0491C51
:103DD000CCF81410DCF81810CAE061E1CAE0000069
:103DE00031CAA7B0DC0D0A0032CAA7B0DC0D0A0048
:103DF00033CAA7B0DC0D0A00340D0A00350D0A00E5
:103E0000360D0A004D4158333031303220496E6949
:103E10007420747275650D0A00000000494E5452FA
:103E2000312073657474696E672066616C73650D0B
:103E30000A000000494E5452322073657474696E52
:103E4000672066616C73650D0A0000004649464FA5
:103E50005F57525F5054525B343A305D2066616C5C
:103E600073650D0A000000004F56465F434F554EE4
:103E70005445525B343A305D2066616C73650D0ABF
:103E8000000000004649464F5F52445F5054525B69
:103E9000343A305D2066616C73650D0A00000000E5
:103EA000CC810008108200087881000843686F6F99
:103EB00073652076616C756520666F72207E203494
:103EC0002E356D4120666F72204C454431202066AE
:103ED000616C73650D0A000043686F6F736520762F
:103EE000616C756520666F72207E20342E356D41C1
:103EF00020666F72204C4544322066616C73650DFC
:103F00000A00000043686F6F73652076616C756509
:103F100020666F72207E2032356D4120666F7220E0
:103F200050696C6F74204C45442066616C73650D5C
:103F30000A00000037CAA7B0DC0D0A0038CAA7B0D3
:103F4000DC0D0A0039CAA7B0DC0D0A003130CAA75F
:103F5000B0DC0D0A0000000074000020FFFF030029
:103F60005012002000007F43A814002000170020FA
:103F7000B9B192E0CCF81890CCF81440CCF8287085
:103F8000DCF8281053F821200A32824203DDCCF8F5
:103F90001840CCF81480491CCCF828101029EFDB0D
:103FA00018E7CCF82840DCF828100A46491C53F8DA
:103FB000215043F82250CCF828100F29F3DBD863A6
:103FC000DCF84400102802DA401CCCF84400CCF89D
:103FD0004840DCF84400022802DACCF84C405CE0AF
:103FE000042815DACCF828A0DCF82800DCF84820F2
:103FF00053F820101144CCF84810401CCCF828008D
:104000001028F1DBDCF848004010CCF84C0044E00C
:10401000082815DACCF82870DCF82800DCF84820ED
:1040200053F820101144CCF84810401CCCF828005C
:104030001028F1DBDCF848008010CCF84C002CE0B4
:10404000102815DACCF828B0DCF82800DCF8482075
:1040500053F820101144CCF84810401CCCF828002C
:104060001028F1DBDCF84800C010CCF84C0014E05C
:10407000CCF82840DCF82800DCF8482053F8201061
:104080001144CCF84810401CCCF828001028F1DB73
:10409000DCF848000011CCF84C00CCF8184005E0E2
:1040A00074613069042805D0401C306130780128E3
:1040B00004D0AAE03046F4644464F7E7B26B3B2ACC
:1040C00072DDB446F461DCF82000894B042806D088
:1040D000401CCCF82000DCF82400B8B192E0CCF809
:1040E0002490CCF82040CCF82870DCF8280053F855
:1040F00020100A39914203DACCF82440CCF8208011
:10410000401CCCF828001028EFDBE4E7CCF828406E
:10411000DCF82800411C53F8215043F82050CCF81B
:1041200028100F29F4DBDA63DCF85800102802DAD3
:10413000401CCCF85800CCF85040DCF8580002285D
:1041400002DACCF854405DE0042815DACCF828A057
:10415000DCF82800DCF8502053F820101144CCF88B
:104160005010401CCCF828001028F1DBDCF850007F
:104170004010CCF8540045E0082816DACCF8287036
:10418000DCF82800DCF8502053F820101144CCF85B
:104190005010401CCCF828001028F1DBDCF850004F
:1041A0008010CCF854002DE02FE0102815DACCF860
:1041B00028B0DCF82800DCF8502053F82010114417
:1041C000CCF85010401CCCF828001028F1DBDCF8AB
:1041D0005000C010CCF8540014E0CCF82840DCF8B3
:1041E0002800DCF8502053F820101144CCF850106F
:1041F000401CCCF828001028F1DBDCF8500000113E
:10420000CCF85400CCF8244005E03462F06904286E
:1042100005D0401CF061F06A142804D010E030464C
:1042200074658465F7E7F46232493348F26C03F051
:1042300067F84FF4FA6331A232A12F48FEF731FA42
:104240002D4831A1C830F26C03F05AF81423F02243
:104250003C210020FDF748FF0A20FDF71BFB03B0BF
:10426000254ABDE8F04FC8323C211420FEF7FFB8C4
:104270003EB5FFF7E3FAFFF7F7FC27490020FFF709
:10428000D1FBFFF700FC244C0020A41EA062234DAC
:1042900013E0234901EB800105EB8000FFF772FC7E
:1042A000A16AA26855F82100904200D2A060E2689D
:1042B000904200D9E060491CA1626168A06A88420E
:1042C000E7DBA06A55F8200020631348401E00F188
:1042D0003B01421ECDE9002102900B1F0F4A1048FE
:1042E000616800F0E3F8BDE83E400EA002F0F8BFC0
:1042F0004017002054820008C01000204E554C4C3E
:10430000000000004F4B000068656172742072610C
:104310007465203A2564000076000020A81400206F
:10432000501200206F6B000030B5012310E050F8F0
:1043300023501A4602E040F82240521E002A04DDB3
:10434000541E50F82440AC42F5DC40F822505B1C6F
:104350008B42ECDB30BDF0B5012414E051F8246051
:10436000234602E041F823505B1E002B08DD5D1E52
:1043700050F8267051F8255050F825C06745F1DCFB
:1043800041F82360641C9442E8DBF0BD2DE9F04362
:1043900005460C4610461E4629462268FFF7DBFFFD
:1043A0004FF0FF3840461BE00F46411C2160C6F12C
:1043B000000C12E055F82130421C18D055F820208E
:1043C0009A1AB24201DC624506DA226802F101095A
:1043D000C4F8009045F82230491CB942EADB401C81
:1043E00021688142E0DC2846BDE8F0439CE7424674
:1043F000E6E72DE9F047DDF820C00124002600257E
:1044000000274FF004094FF00008C1F800805B1E40
:1044100002E02FB17F1E641C9C42FADBBDE8F087EE
:1044200052F82480E04506DDA4F1010A52F82AA0E2
:10443000D04500DD0126012EEDD1E04504DA4D45E1
:1044400002DA00260025E6E74D4512D1E045E2DA22
:10445000A4F1010852F82880E045DCDB0D680F2D3F
:1044600003DA6E1C0E6040F8254000250026082760
:10447000D1E76D1CCFE72DE9F8410C46DDE9088551
:1044800007990646174600913A4621463046FFF7FF
:10449000B0FF43463A4621463046FFF777FF206893
:1044A000A84200DB28462060BDE8F8812DE9FF4FD7
:1044B00099B00546DDE927960C46174600210020F5
:1044C00003E055F820201144401CA042F9DBB1FB69
:1044D000F4F10020DFF8308205E055F82020521A70
:1044E00048F82020401CA042F7DB0020411C58F86F
:1044F000202058F821100A44811C58F82130C11C92
:1045000058F8211019441144CA1701EB927189100F
:1045100048F82010401C9228E8DB0021002058F8C1
:1045200020201144401C9628F9DB962091FBF0F1E5
:104530001E2900DA1E213C2900DD3C210020834693
:104540000DF1200A4AF820B0401C0F28FADB0422A3
:10455000CDE900120F20029096236B4A17A908A8F4
:10456000FFF789FF0021179A022A18DB012008E0D3
:10457000431E5AF820C05AF82330ACEB0303194409
:10458000401C9042F4DB521E91FBF2F040F6B83131
:1045900091FBF0F0C9F800000120307004E05B48A6
:1045A000C9F8000086F800B00020DFF8649108E048
:1045B00055F8201048F8201057F8201049F820101E
:1045C000401CA042F4DB17990025002003AA002319
:1045D00042F82030401C0528F8DB00200EE008AA35
:1045E00052F82020962A08DD1C9948480860269930
:1045F000002008701DB0BDE8F08F401C8842EEDB43
:104600000020491E189153E04FF07F410A4608AC44
:10461000431C54F8233054F82040A3EB040CBCF1A5
:10462000030F44DDA2460DE058F82AB0934501DDA2
:104630005A46574659F82AB08B4501DD5946564629
:104640000AF1010A5345EFDC59F823B059F824A0C8
:10465000A6EB040EABEB0A0B0BFB0EFB9BFBFCFB70
:10466000DA4459F826B0ABEB0A0A58F823B058F8E8
:1046700024303C1BABEB030B0BFB04FB9BFBFCF460
:10468000234458F82640E31A0AFB02FA4FEAEA12DA
:104690004B43D91100290ADD052D08DA3AB164230C
:1046A0005A4392FBF1F203A941F825206D1C401CEE
:1046B00018998842A8DB294603A8FFF735FE05EBC9
:1046C000D570401001280ADD03A9421E51F82000D0
:1046D00051F82220104400EBD070401002E003A9F2
:1046E00051F82000C11EB52907D20A49085C1C995F
:1046F00008602699012008707CE71C99034808602F
:1047000026990020087075E78017002019FCFFFF2C
:10471000D8190020F07D000800F1080141604FF039
:10472000FF328260C1600161002101607047002199
:104730000161704742684A6093688B609368596072
:10474000916008610168491C0160704730B50C68D0
:10475000621C02D000F1080202E0026904E01A467D
:1047600053681D68A542FAD953684B6099608A6006
:10477000516008610168491C016030BD0169D0E9E0
:1047800001329A60D0E901235A604A68824201D11D
:1047900082684A60002202610868401E0860704713
:1047A00070B504460D46002C05D140F21B12F8A14D
:1047B000FEA002F095FD02F009F9D4E90F2021686E
:1047C00002FB001161600021A1632168A160E06B20
:1047D0002268216C401E00FB0121E1604FF0FF3098
:1047E00084F8440084F8450004F110004DB1FFF74F
:1047F00093FF04F12400FFF78FFF02F001F901207D
:1048000070BD21690029F8D001F04BFA0028F4D0DE
:10481000EA494FF080500860BFF34F8FBFF36F8FAE
:10482000EBE710B5029C002909D02260E063216407
:1048300001212046FFF7B4FF0020A06410BD2460D2
:10484000F4E7F8B505460E461746002D05D14FF49E
:10485000C472CFA1D5A002F043FD86B105FB06F0DE
:104860004C3001F088FF04463CB104F14C023B4659
:10487000314628460094FFF7D4FF2046F8BD0020BB
:10488000EEE72DE9F041044617460026A56B226CA1
:10489000002A1FD07FB1E06802F024F9E168206CA3
:1048A000091AE1602268914202D26168081AE06048
:1048B000022F0DD00EE0A06802F014F9216CA06860
:1048C0000844A0606168884204D32068A06001E0C9
:1048D00005B16D1E6D1CA5633046BDE8F0812DE964
:1048E000F3410F460098846C0026002C05D140F659
:1048F000CE12A7A1ADA002F0F3FCA06BE16B884241
:1049000005D340F6CF12A2A1A8A002F0E9FCA06B4B
:10491000E16B88420CD294F945503A4669462046EC
:10492000FFF7AFFF0646681C05D06D1C84F84550A4
:104930003046BDE8FC81606A0028F9D004F124000B
:1049400001F0AFF90028F3D00126F1E72DE9F0419D
:10495000044602F03BF894F9455004F1240613E0B4
:10496000A06C38B100212046FFF7B9FF50B101F02B
:1049700063FA07E0606A48B1304601F092F908B185
:1049800001F05AFA6D1E6DB2002DE9DC4FF0FF36D2
:1049900084F8456002F034F802F018F894F94450B5
:1049A00004F1100709E0206948B1384601F079F9AF
:1049B00008B101F041FA6D1E6DB2002DF3DC84F8F0
:1049C0004460BDE8F04102F01BB810B5044601F0A8
:1049D000FDFFA06BE16B884201D1012400E00024BF
:1049E00002F00EF8204610BD2DE9FF4782B00446C4
:1049F0008A4698460025002C05D140F2D92264A1B0
:104A00006AA002F06DFCBAF1000F07D1206C28B14A
:104A100040F2DA225EA165A002F062FCB8F1020F5A
:104A200008D1E06B012805D040F2DB2258A15FA03D
:104A300002F056FC01F004FA38B9049828B140F2AB
:104A4000DE2253A159A002F04BFC4FF000094FF0B9
:104A500080565A4F01F0BAFFA06BE16B884206D333
:104A6000B8F1020F03D0049860B37DB333E042463F
:104A700051462046FFF705FFA16C51B14146204643
:104A8000FFF72DFFC0B13E60BFF34F8FBFF36F8FB5
:104A900012E0616A51B104F1240001F002F958B149
:104AA0003E60BFF34F8FBFF36F8F05E020B13E60D4
:104AB000BFF34F8FBFF36F8F01F0A2FF012006B04D
:104AC000BDE8F08701F09CFF0020F8E7FFE76846AB
:104AD00001F059F9012501F093FF00F0BEFD01F04E
:104AE00075FF94F94400401C01D184F8449094F976
:104AF0004500401C01D184F8459001F081FF04A9D4
:104B0000684601F052F930B12046FFF71FFF00F070
:104B1000F5FC0020D3E72046FFF757FF88B104F1EA
:104B20001000049901F061F82046FFF70FFF00F034
:104B3000E5FC00288ED13E60BFF34F8FBFF36F8F2F
:104B400088E72046FFF702FF00F0D8FC82E72DE956
:104B5000F0470446894615469846002C05D140F298
:104B60009F320BA111A002F0BBFBB9F1000F07D1DE
:104B7000206C28B14FF4687205A10CA002F0B0FBC4
:104B8000B8F1020F24D1E06B012821D018E0000019
:104B90002E2E5C2E2E5C4672656552544F535C730C
:104BA00072635C71756575652E6300004572726F86
:104BB000723A25732C25640D0A00000004ED00E014
:104BC00040F2A132AFF23801AFF2200002F088FBD0
:104BD00001F03DFF5020EFF3118780F31188BFF300
:104BE0004F8FBFF36F8FA06BE16B884206D3B8F194
:104BF000020F03D0002087F3118861E794F9456024
:104C0000424649462046FFF73CFE701C04D0761C05
:104C100084F845600120EEE7A06C012648B14146CA
:104C20002046FFF75CFE0028F4D0002DF2D02E6065
:104C3000F0E7606A0028EDD004F1240001F031F8BB
:104C40000028E7D0002DE5D02E60E3E72DE9F04104
:104C500004460D46002C07D140F23C42AFF2D00191
:104C6000AFF2B80002F03CFB206C38B14FF4886220
:104C7000AFF2E401AFF2CC0002F032FB206848B999
:104C8000606838B140F24542AFF2FC01AFF2E40097
:104C900002F026FB01F0DBFE5020EFF3118680F3DB
:104CA0001188BFF34F8FBFF36F8FA16BE06B88420A
:104CB00024D994F94500491CA163411C04D0401C2F
:104CC00084F8450001201AE0A06C012748B10021BA
:104CD0002046FFF704FE0028F4D0002DF2D02F600C
:104CE000F0E7606A0028EDD004F1240000F0D9FF5D
:104CF0000028E7D0002DE5D02F60E3E7002086F301
:104D00001188EAE510B5044601F060FEA06B20B101
:104D1000002401F075FE204610BD0124F9E730B4EF
:104D20000B46026C002A0CD0C1681144C160446873
:104D3000A14201D30168C160C16830BC184601F0CE
:104D4000D1BE30BC70472DE9FF4F83B004468A4680
:104D50009B460026002C07D140F2DC42AFF2D01176
:104D6000AFF2B81002F0BCFABAF1000F09D1206C12
:104D700038B140F2DD42AFF2E811AFF2D01002F0EC
:104D8000AFFA01F05DF848B9059838B14FF49C626C
:104D9000AFF20421AFF2EC1002F0A2FA4FF00009DA
:104DA0004FF08057DFF8148401F010FEA56B6DB34F
:104DB000E66851462046FFF7B2FFBBF1000F13D063
:104DC000E660606A50B104F1240000F06AFF28B187
:104DD000C8F80070BFF34F8FBFF36F8F01F010FE64
:104DE000012007B0BDE8F08F6D1EA5632069002883
:104DF000F4D004F1100000F054FF0028EED0C8F801
:104E00000070BFF34F8FBFF36F8FE7E7059808B1CE
:104E100026B107E001F0F4FD0020E2E701A800F070
:104E2000B2FF012601F0ECFD00F017FC01F0CEFD11
:104E300094F94400401C01D184F8449094F9450051
:104E4000401C01D184F8459001F0DAFD05A901A8C4
:104E500000F0ABFF58B12046FFF778FD00F04EFBA5
:104E60002046FFF74FFF00289ED00020B9E72046DC
:104E7000FFF748FF90B104F12400059900F0B5FE5A
:104E80002046FFF763FD00F039FB00288CD1C8F8FD
:104E90000070BFF34F8FBFF36F8F85E72046FFF79A
:104EA00055FD00F02BFB7FE72DE9F04704468946CE
:104EB0009046002C07D14FF4B462AFF22C31AFF220
:104EC000143002F00DFAB9F1000F09D1206C38B19D
:104ED00040F2A152AFF24831AFF2303002F000FAA6
:104EE00001F0B5FD5020EFF3118780F31188BFF377
:104EF0004F8FBFF36F8FA66BF6B194F944504946BC
:104F00002046FFF70CFF761EA663681C04D06D1CBC
:104F100084F84450012010E020690028FAD004F100
:104F2000100000F0BEFE0028F4D0B8F1000FF1D060
:104F30000120C8F80000EDE7002087F31188BFE5E5
:104F40002DE9F04104460F46002C07D140F2FC52F7
:104F5000AFF2C431AFF2AC3002F0C2F94FB9206CFD
:104F600038B140F2FD52AFF2D831AFF2C03002F0AA
:104F7000B7F9206C38B940F2FE52AFF2EC31AFF223
:104F8000D43002F0ADF901F062FD5020EFF311854D
:104F900080F31188BFF34F8FBFF36F8FA06B38B1D1
:104FA000E66839462046FFF7BAFEE660012000E0D9
:104FB000002085F3118890E410B50446002C07D139
:104FC00040F22F62AFF23841AFF2204002F088F990
:104FD00001F0FCFCA46B01F013FD204610BD10B5E0
:104FE0000446002C07D140F24162AFF25C41AFF2BF
:104FF000444002F075F901F0E9FCD4E90E10441ABE
:1050000001F0FEFC204610BD10B50446002C07D16F
:1050100040F25162AFF28841AFF2704002F060F9A5
:10502000A06B10BD0021664A02EBC1035B6883429E
:1050300006D1002042F8310002EBC1014860704700
:10504000491C0A29F0D3704710B50446002C07D13B
:1050500040F25D62AFF2C841AFF2B04002F040F9F9
:105060002046FFF7DFFF2046BDE8104001F0EABB15
:1050700010B50446002C07D140F29372AFF2F04114
:10508000AFF2D84002F02CF9A06B08B1002010BD9F
:10509000012010BD10B50446002C07D140F2BA72B1
:1050A000AFF21451AFF2FC4002F01AF9A06BE16BC1
:1050B000884201D1012010BD002010BD10B5002292
:1050C0003F4B53F832401CB1521C0A2AF9D310BD91
:1050D00043F8321003EBC201486010BD10B5002444
:1050E0000021374A02EBC1035B68834202D152F8C8
:1050F000314002E0491C0A29F4D3204610BD70B5A6
:1051000004460D46164601F061FC94F944304FF018
:1051100000005B1C01D184F8440094F94510491C3F
:1051200001D184F8450001F06BFCA06B28B9324630
:10513000294604F1240000F098FD2046BDE87040A7
:1051400004E400220421FFF77CBB70B504460D4641
:1051500001F03CFCA06C08B1002405E0A06B08B194
:10516000002401E0A564012401F04AFC204670BD42
:1051700010B50446A06C884201D0002010BDA06B81
:1051800008B1002010BD01F021FC0020A06401F056
:1051900037FC012010BD08B5002300930A4669467C
:1051A000FFF7D1FD009808BD08B50021009100224D
:1051B0006946FFF779FE009808BD000004ED00E0A5
:1051C000301C002070B50024FB4D04EB840005EB7F
:1051D0008000FFF7A1FA641C202CF6D3F748FFF7F4
:1051E0009BFAF6481430FFF797FAF4482830FFF797
:1051F00093FAF2483C30FFF78FFAF0485030FFF74F
:105200008BFAEF48ED4941631431816370BD70B58D
:10521000044601F0DBFBEA4DA868401CA860286842
:1052200010B1686938B10CE02C60A868012808D179
:10523000FFF7C8FF05E02868E16AC06A884200D825
:105240002C60686A401C6862E06A01212A6981401A
:1052500011432961D84900EB800001EB8000211D3A
:10526000FFF768FA01F0CCFB686900280CD02868C9
:10527000E16AC06A884207D2D2494FF08050086084
:10528000BFF34F8FBFF36F8F70BD2DE9F04781469D
:10529000DDE908580A9C0E469A46206B521E00EB28
:1052A000820020F00707780705D040F22B32C6A114
:1052B000CCA002F015F800202218315C82F83410DE
:1052C000315C11B1401C1028F6D3002684F84360ED
:1052D000202D00D31F25E562201DFFF728FA04F1D9
:1052E0001800FFF724FA2461C5F12000A061646270
:1052F000666484F8486052464946384601F00DFB22
:105300002060B8F1000F01D0C8F80040BDE8F08778
:105310002DE9FF5F8146DDE90E788A4616469B46F9
:10532000B00001F028FA054628000AD04C2001F010
:1053300022FA04460CB1256304E0284601F082FA03
:1053400000E000248CB10020CDE90240CDE90078D6
:105350005B46324651464846FFF797FF2046FFF727
:1053600056FF012004B0BDE8F09F4FF0FF30F9E791
:105370009348416B0968002905D0416BC968C96829
:105380004968816270474FF0FF318162704710B504
:105390000446206B01F056FA2046BDE8104001F0AB
:1053A00051BA70B5044601F011FB854D04B92C6863
:1053B000201DFFF7E3F958B9E06A7F4A00EB80014E
:1053C00052F8211021B901218140286988432861C0
:1053D000A06A18B104F11800FFF7D0F9686A401C00
:1053E00068622868844208D17448211D3C30FFF768
:1053F000A1F96868401C686007E0A868401EA860C2
:105400002046FFF7C4FFFFF7B3FF01F0F9FA686920
:10541000002812D0286884420FD1286B28B140F2AE
:10542000654269A16FA001F05BFF66494FF08050B3
:105430000860BFF34F8FBFF36F8F70BD2DE9F04150
:1054400000265F4F386B002808D0B869401CB8614F
:10545000F86900B101263046BDE8F081FD686D1C99
:10546000FD608DB9786B006828B140F6D91256A15D
:105470005CA001F035FF786BB96B7963B863386A6B
:10548000401C3862FFF774FFB86ADFF82C81854250
:105490000DD3786B006838B1786BC068C4686068F9
:1054A00085420ED2B86202E04FF0FF30B862386831
:1054B000C06A00EB800058F820000128C8D90126F6
:1054C000C6E7201DFFF75AF9A06A18B104F11800C9
:1054D000FFF754F9E06A01213A69814011433961CB
:1054E00000EB800008EB8000211DFFF723F9E06A44
:1054F0003968C96A8842CCD30126CAE72DE9F04150
:10550000002400272E4D286B002805D14FF4FD62A2
:105510002DA134A001F0E4FE01F058FA286B401EE2
:105520002863286BF0BBA868E0B3DFF89080012601
:1055300008F128081DE0D8F80C00C46804F1180030
:10554000FFF71CF9201DFFF719F9E06A2A6906FA2E
:1055500000F111432961184900EB800001EB800044
:10556000211DFFF7E7F8E06A2968C96A884200D37D
:10557000EE61D8F800000028DDD10CB1FFF7F8FE8D
:10558000AC6944B1FFF75AFF00B1EE61641E002C14
:10559000F8D10020A861E86920B10127094938073E
:1055A000086000E003E0BFF34F8FBFF36F8F01F09F
:1055B00027FA384650E70000801C0020001F00201A
:1055C000D000002004ED00E02E2E5C2E2E5C4672F2
:1055D000656552544F535C7372635C7461736B7393
:1055E0002E6300004572726F723A25732C25640D8C
:1055F0000A0000002DE9F04104460F46FE4EF56812
:105600003068001DFFF7BAF838B9306890F82C10F0
:1056100001208840316981433161601C07D137B175
:105620003168BDE8F041091DF448FFF783B82C4408
:1056300030684460AC4206D23168B06B091DBDE8E9
:10564000F041FFF783B83168706B091DFFF77EF8F2
:10565000B06A844200D2B462FEE6E748016B491C9E
:10566000016370472DE9F04105460E460024002DE8
:1056700007D140F27942AFF2B001AFF2980001F0E9
:105680002FFE3EB940F27A42AFF2C401AFF2AC0055
:1056900001F026FED84F386B38B140F27B42AFF2B2
:1056A000D801AFF2C00001F01BFEFFF7D6FFFA6889
:1056B0002B689919934205D98B4208D9914206D992
:1056C000012404E08B4201D8914200D901242960D1
:1056D0001CB1881A0021FFF78DFFFFF70FFF00288C
:1056E00007D1C7494FF080500860BFF34F8FBFF319
:1056F0006F8FB1E610B504460020002C12D0BE48D2
:10570000006B38B140F2CF42AFF24411AFF22C102F
:1057100001F0E6FDFFF7A1FF00212046FFF76AFF39
:10572000FFF7ECFE002807D1B5494FF08050086024
:10573000BFF34F8FBFF36F8F10BD70B50546002DBF
:1057400007D140F2FB42AFF28011AFF2681001F0D6
:10575000C7FDA94E3068854201D1002070BD01F01F
:1057600035F96C6901F04CF9706B844202D0B06B72
:10577000844201D1022070BDA048844205D1A86AAC
:1057800008B1022070BD032070BD9C4814388442CB
:1057900002D00CB1012070BD042070BD10B50446CC
:1057A00001F014F90CB994480468E46A01F028F98E
:1057B000204610BD10B5044601F049F95020EFF322
:1057C000118180F31188BFF34F8FBFF36F8F0CB936
:1057D00089480468E06A81F3118810BD2DE9F04121
:1057E00004460D460026202D07D34FF4B062AFF2D9
:1057F0002821AFF2102001F073FD202D00D31F25CA
:1058000001F0E4F87C4F04B93C68D4F82C80A8453A
:105810003CD0454508D93868844209D03868C06A08
:10582000A84205D8012603E03868844200D1012649
:10583000E562A069002802DBC5F12000A061714D7E
:1058400008EB8801606905EB8101884215D1201DB4
:10585000FEF794FF012120B93A6901FA08F082436A
:105860003A61E06A3A6981401143396100EB800096
:1058700005EB8000211DFEF75DFF3EB160494FF052
:1058800080500860BFF34F8FBFF36F8FBDE8F041CA
:1058900001F0B6B870B5584D286B002802D0012031
:1058A000E86170BD0020E8612869B0FA80F0C0F1BD
:1058B0001F00544E00EB800456F8240038B940F61F
:1058C000F622AFF2FC21AFF2E42001F009FD06EB75
:1058D000840041684968416000F10802914201D1A9
:1058E000496841604068C068286070BD70B5044672
:1058F00001F06CF8404D04B92C68201DFEF73EFF06
:1059000058B9E06A3F4A00EB800152F8211021B9F2
:1059100001218140286988432861A06A18B104F1F7
:105920001800FEF72BFF211D3448FEF703FF01F09E
:1059300067F8686928B101F049F8FFF719FD01F02F
:105940005FF82868844213D1686990B1286B38B138
:1059500040F25762AFF29031AFF2783001F0C0FC04
:1059600027494FF080500860BFF34F8FBFF36F8F10
:1059700070BD2248A9680068884202D100202860D2
:1059800070BDBDE8704085E770B50025044600286D
:1059900007D140F28162AFF2D031AFF2B83001F0FE
:1059A0009FFC16496069884205D1A06A283988425F
:1059B00001D000B90125284670BD70B50446002805
:1059C00007D140F2AB62AFF20041AFF2E83001F034
:1059D00087FC002C34D0084D2868844230D000F079
:1059E000F5FF2046FFF7D0FF30B3201DFEF7C6FEBF
:1059F000E06A0121814007E0D0000020501F002014
:105A000004ED00E0801C00202A6911432961FA4955
:105A100000EB800001EB8000211DFEF78BFEE06AA9
:105A20002968C96A884207D3F4494FF0805008605A
:105A3000BFF34F8FBFF36F8FBDE8704000F0E0BF42
:105A400070BD2DE9F04100260446002807D140F240
:105A5000E262AFF28C41AFF2744001F041FC00F021
:105A6000F6FF5020EFF3118580F31188BFF34F8FBD
:105A7000BFF36F8F2046FFF787FF38B1E04F386BD9
:105A800040B104F11801DF48FEF754FE85F3118898
:105A90003046E1E4E06A3968C96A884200D30126E9
:105AA000201DFEF76BFEE06A01213A698140114337
:105AB0003961D14900EB800001EB8000211DFEF728
:105AC00039FEE3E770B5CF4ECD4D14361CE0FFF73D
:105AD000C4FD306820B10024FFF710FDA4B901E037
