:020000040800F2
:10000000C89D0020E101000875140008771400085D
:10001000791400087B1400087D140008000000001B
:10002000000000000000000000000000490100087E
:100030007F140008000000008D01000881140008F2
:10004000FB010008FB010008FB010008FB010008A0
:10005000FB010008FB010008FB010008FB01000890
:10006000FB010008FB010008FB010008FB01000880
:10007000FB010008FB010008FB010008FB01000870
:10008000FB010008FB010008FB010008FB01000860
:10009000FB010008FB010008FB010008D91400085F
:1000A000FB010008FB010008FB010008FB01000840
:1000B000FB010008FB010008FB010008FB01000830
:1000C000FB010008FB010008FB010008FB01000820
:1000D000FB010008FB010008FF1400089914000848
:1000E000FB010008FB010008FB010008FB01000800
:1000F000FB010008FB010008FB010008FB010008F0
:10010000FB010008FB010008FB010008FB010008DF
:10011000FB010008FB010008FB010008FB010008CF
:10012000FB010008FB010008FB010008FB010008BF
:10013000DFF810D005F080FD00480047FD120008F0
:10014000AFF30080C89D0020224B19680868B0E812
:10015000F00F80F30988BFF36F8F4FF0000080F33A
:1001600011884EF00D0E7047000000000648006830
:10017000006880F3088862B661B6BFF34F8FBFF3A3
:100180006F8F00DF00BF00BF08ED00E0EFF30980D4
:10019000BFF36F8F0F4B1A6820E9F00F106008B59E
:1001A0004FF0500080F31188BFF34F8FBFF36F8F74
:1001B00004F0B2FB4FF0000080F31188BDE8084066
:1001C00019680868B0E8F00F80F30988BFF36F8FF3
:1001D000704700BF94000020EFF3058070470000D7
:1001E0000648804706480047FEE7FEE7FEE7FEE7D1
:1001F000FEE7FEE7FEE7FEE7FEE7FEE7AD020008EA
:10020000310100080CB500220192009252480168A9
:1002100041F4803101604FF4A063016801F40031C2
:1002200000910199491C0191009911B901999942D4
:10023000F3D10168890302D50121009100E0009209
:100240000099012930D145490A6842F010020A603C
:100250000A6822F003020A600A6842F002020A6099
:100260004168416041684160416841F4806141609A
:10027000416821F47C114160416841F4E81141601A
:10028000016841F08071016001688901FCD5416815
:1002900021F003014160416841F002014160416881
:1002A000C1F381010229FAD10CBDABE710B52A4890
:1002B000016841F0010101604168294A1140416033
:1002C0000168284A11400160016821F48021016021
:1002D000416821F4FE0141604FF41F018160FFF786
:1002E000E4FF21494FF00060086010BD10B51A4AC4
:1002F000506800F00C011D4B1D4800290ED0042948
:100300000ED008290ED003605168194AC1F30311B9
:10031000121D515C0268CA40026010BD0360F3E721
:100320000360F1E7516801F47011536803F48033FE
:10033000022404EB914133B153689B0307D50D4B65
:1003400059430160E0E70B4B59430160DCE7074B81
:1003500059430160D8E7000000100240002002402D
:100360000000FFF8FFFFF6FE08ED00E000127A0043
:100370000000002000093D002A4908432A4908607E
:10038000704770B50F23C27801260178002A1ED06D
:10039000254A126802F4E062C2F5E062120AC2F174
:1003A0000404D3404578A54082781A402A431201BC
:1003B00001F1E02181F80024007800F01F018E4057
:1003C0004009800000F1E020C0F8006170BD01F03C
:1003D0001F0086404809800000F1E020C0F88061DD
:1003E00070BD124A114001430F48001F0160704761
:1003F0000D4A121D002903D0116801431160704796
:1004000011688143116070474FF0E021042804D047
:10041000086920F0040008617047086940F0040092
:10042000086170470000FA050CED00E080FFFF1F37
:10043000384900200860091D0860091D0860091D71
:1004400008603449344814310860704730B5314A87
:1004500083790168002B2AD013688B431360111D28
:100460000B680468A3430B60017911440B680468AE
:1004700023430B60274C08342168036899432160AB
:10048000231D19680568A94319604179102905D011
:1004900011440A68006802430A6030BD216802689E
:1004A00011432160196800680143196030BD00796B
:1004B000104402688A43026030BD0021016001716E
:1004C0000C22427181717047124910310A6802434F
:1004D0000A607047014600200E4A143212680A4230
:1004E00000D0012070470B49143108607047014665
:1004F0000020084A12680A40064B14331B680B425E
:1005000002D0002A00D0012070470249143108604F
:100510007047000000040140FFFF0F008100A1F1BF
:10052000C04100280CD043F2D2020A60401C800077
:10053000A0F1C0406FF070420260C1F80421704722
:100540004FF0204343F2DB021A60EFE710B51824A6
:1005500040234FF020414FF0FC32102805D041F8E5
:10056000804F4B608A60CA6010BD0C664B668A661D
:10057000CA6610BDF74818210160002141604FF0A4
:10058000FC318160C1600161704710B5D0E9011292
:100590001143D0E903231A4311434269114382698D
:1005A0001143C2691143026A1143426A1143826ACC
:1005B0001143C26A1143026B114302689200A2F117
:1005C000C04211608168082907D101688900A1F142
:1005D000C0410A6842F040020A60416BD1E9002341
:1005E00042EA03128B688C891B0243EA04431A43D4
:1005F0000B8A42EA03520B7D896942EA03620A438D
:100600000168491C8900A1F1C0410A60C16AB1F5C5
:10061000804F08D000686FF070418000A0F1C040AA
:10062000C0F8041110BD816BD1E9002342EA031226
:100630008B680C8A1B0243EA04531A430B7D8969B9
:1006400042EA036200680A438000A0F1C040C0F89B
:10065000042110BD30B5D0E901121143D0E90323C4
:100660001A431143426941EA4221826941EA423117
:1006700041F00804C169D1E9002342EA03220B8951
:10068000097B1B0443EA01610A43016AD1E9003591
:1006900043EA05230D89097B2D0445EA01610B43DB
:1006A00001684FF02040102904D040F8804F82604C
:1006B000C36030BD04668266C36630BD10B5D0E944
:1006C000001241EA42218268102343EA4232114378
:1006D000A04A1160C168D1E9003443EA04230C89BF
:1006E000097B240444EA01610B4393600169D1E969
:1006F000003443EA04230C89097B240444EA0161A1
:100700000B43D3604069D0E9001341EA0321038918
:10071000007B1B0443EA00600143116110BD10B56A
:1007200000210160022242608160C160016141617B
:100730008161C1610162D202426252008262C16281
:100740000163436B0F221A60436B5A60446BFF23B3
:10075000A360446BE260446B2261446B6261446B52
:10076000A161846B2260846B6260846BA360836B85
:10077000DA60836B1A61836B5A61806B816110BD93
:1007800010210160002141608160C160016141610F
:100790008161C269FC211160C2695160C2699160C6
:1007A000C269D160026A1160026A5160026A916096
:1007B000006AC16070470021016041608160C268C9
:1007C000FC211160C2685160C2689160C268D1604A
:1007D0000269116002695160026991600269D16029
:1007E0004269116042695160426991604069C1602B
:1007F00070478000A0F1C040002904D0016841F09A
:100800000101016070470168534A1140016070475F
:100810004FF0204200290CD0102805D052F8800F4C
:1008200040F0040010607047106E40F00400106645
:1008300070474949C91E102804D052F8800F08405B
:1008400010607047106E0840106670474FF02041EE
:10085000002805D051F8A00F40F004000860704750
:1008600051F8A00F3C4AD21E1040086070474FF06C
:10087000204200290CD0102805D052F8800F40F0FB
:10088000400010607047106E40F0400010667047E6
:1008900031493F39102804D052F8800F08401060C9
:1008A0007047106E0840106670474FF020411028C6
:1008B00002D0D1F894007047486F704710B54FF4DC
:1008C00080744FF02043002A11D0102806D0A04297
:1008D00008D153F8840F0843186010BD586E0843C0
:1008E000586610BD53F8A40F0843186010BD1028B7
:1008F00006D0A04208D153F8840F8843186010BD79
:10090000586E8843586610BD53F8A40F884318608A
:1009100010BD034600204FF02042102B08D0B3F545
:10092000807F07D0D2F8A4200A4200D0012070476F
:10093000526EF9E7D2F88420F6E74FF020421028F3
:100940000CD0B0F5807F0DD052F8A40F8843106012
:1009500070470000A00000A0FEFF0F00506E88430B
:100960005066F5E752F8840F88431060F0E70346BD
:1009700000204FF02042102B0ED0B3F5807F0DD019
:10098000D2F8A42002EA010302EAD101002BDFD051
:100990000029DDD00120DBE7526EF3E7D2F8842096
:1009A000F0E74FF02042102808D0B0F5807F0AD041
:1009B00052F8A40F20EAD1001060C9E7506E20EA77
:1009C000D1005066C4E752F8840F20EAD1001060CD
:1009D000BEE7000010B59C49884209D101210420DE
:1009E00000F07DFA0021BDE81040042000F077BA45
:1009F0009649884209D10121082000F070FA0021AF
:100A0000BDE81040082000F06ABA9149884209D137
:100A10000121102000F063FA0021BDE810401020F1
:100A200000F05DBA8B49884209D10121202000F0F5
:100A300056FA0021BDE81040202000F050BA864947
:100A4000884209D10121402000F049FA0021BDE887
:100A50001040402000F043BA8049884209D101216A
:100A6000802000F03CFA0021BDE81040802000F01A
:100A700036BA7B4988420AD184150121204600F00C
:100A80002EFA2046BDE81040002100F028BA10BD23
:100A900010B50121084600F022FA0021BDE81040FF
:100AA000012000F01CBA2DE9F0410022CC7804F0BE
:100AB0000F03E40601D58C7823430C784FF00F0721
:100AC00014F0FF0F4FF0010C1CD005680CFA02F473
:100AD0000E882640A64211D1960007FA06F825EAAC
:100AE000080503FA06F848EA0505CE78282E02D054
:100AF000482E02D002E0446100E00461521C082A42
:100B0000E4D305600A88FF2A1ED94568002202F155
:100B100008060CFA06F40E882640A64210D196006C
:100B200007FA06F825EA080503FA06F848EA050573
:100B3000CE78282E00D14461CE78482E00D10461B1
:100B4000521C082AE3D34560BDE8F0814FF6FF71DF
:100B50000180022181700421C1707047024600208B
:100B600092680A4200D001207047806880B27047C6
:100B700002460020D2680A4200D001207047C068B7
:100B800080B270470161704741617047002A01D00F
:100B90000161704741617047C160704741F4803224
:100BA00082618161826181698069704710B52D4BD6
:100BB0001A684FF68074224042EA00100843186019
:100BC00010BD2949C8617047F0B5264C002801DAEC
:100BD000E36900E06368C0F30346420D120185B289
:100BE000C0F301579540032F07D0C2020CD5032252
:100BF000B240934343F0706209E023F0706263688F
:100C000023F07063636002E0AB4343F0706201B1B4
:100C10002A43002801DAE261F0BD6260F0BD10B540
:100C20008A07120F0F23934021F003040D4921443A
:100C30008C689C438C608B68904003438B6010BD34
:100C40000949DC310860704700080140000C014090
:100C5000001001400014014000180140001C014038
:100C6000002001400000014000002042B44801681B
:100C700041F0010101604168B24A114041600168E0
:100C8000B14A11400160016821F48021016041688E
:100C900021F4FE0141604FF41F0181607047A849B3
:100CA0000A6822F480320A600A6822F480220A600C
:100CB000B0F5803F07D0B0F5802F03D1086840F42D
:100CC000A02008607047086840F4803008607047D2
:100CD0000346002059099A4A01290AD002290AD05C
:100CE000516A03F01F02012393400B4200D0012000
:100CF00070471168F5E7116AF3E718B50020009016
:100D00004FF4A0643120FFF7E3FF0099491C0091E4
:100D10000099A14201D00028F4D03120FFF7D8FF7C
:100D200008B1012018BD002018BD854A116821F0C6
:100D3000F80141EAC00010607047844908607047BC
:100D40007F4B5A6822F47C12084310435860704766
:100D50007E49086670477A4A516821F003010143D1
:100D6000516070477648406800F00C007047744A44
:100D7000516821F0F001014351607047704A516899
:100D800021F4E0610143516070476D4A516821F4DC
:100D9000605141EAC00050607047694A002903D0A1
:100DA000517A014351727047517A814351727047B1
:100DB0006649D83108607047614A516821F4404162
:100DC0000143516070475E49002220310A7001F8EA
:100DD0002029012805D0042802D1052081F820000F
:100DE0007047012081F8200070475949086070471A
:100DF00053490A6A02430A627047554944390860F8
:100E0000704710B54E4A516801F00C01514B002952
:100E100027D0042927D0082927D00360516801F082
:100E2000F00109094C4B5C5C0168E1404160546889
:100E300004F4E064240A1C5D21FA04F4846054681C
:100E400004F46054E40A1B5DD940C160526802F4A6
:100E50004042920B404B1B1F9A5CB1FBF2F10161C7
:100E600010BD0360DAE70360D8E7516801F4701140
:100E7000536803F48033022404EB914133B1536887
:100E80009B0307D5354B59430160C7E7334B5943A3
:100E90000160C3E72F4B59430160BFE7284A00298F
:100EA00003D05169014351617047516981435161D8
:100EB0007047234A002903D091690143916170472B
:100EC00091698143916170471D4A002903D0D1691E
:100ED0000143D1617047D1698143D1617047184A9C
:100EE000002903D0D1680143D1607047D1688143A4
:100EF000D1607047124A002903D011690143116182
:100F00007047116981431161704711494039086088
:100F100070470E49C86470470949C871704708484E
:100F2000416A41F080714162704701460020044AE5
:100F300092680A4200D001207047014988727047C8
:100F4000001002400000FFF8FFFFF6FE00004242E2
:100F50008004424200127A001800002000093D007F
:100F600010B5E14988420AD101218C032046FFF7E0
:100F7000B6FF2046BDE810400021FFF7B0BFDB49B7
:100F800088420AD101214C042046FFF7B3FF2046D6
:100F9000BDE810400021FFF7ADBFD54988420AD116
:100FA00001218C042046FFF7A5FF2046BDE8104034
:100FB0000021FFF79FBFCF4988420AD10121CC040D
:100FC0002046FFF797FF2046BDE810400021FFF7BD
:100FD00091BFC94988420AD101210C052046FFF77B
:100FE00089FF2046BDE810400021FFF783BF10BDF8
:100FF00030B585B004460D46208A4CF6FF71084096
:10100000E98801432182A0894EF6F3110840A9889E
:101010002A8911436A8902431143A181A08A4FF6AC
:10102000FF410840A9890143A1826846FFF7E9FE14
:10103000AD48844201D1039800E00298A1890904D7
:1010400008D500EBC00101EB001029684900B0FB96
:10105000F1F007E000EBC00101EB00102968890006
:10106000B0FBF1F06422B0FBF2F109010B096FF063
:1010700018056B4300EB8300A3891D044FF0320376
:1010800007D503EBC000B0FBF2F000F00700084307
:1010900006E003EB0010B0FBF2F000F00F00084395
:1010A000208105B030BD4FF41651016000218180D0
:1010B000C18001810C2242818181704710B5038A71
:1010C0004FF2FF0213400A884C8822438C88C9885B
:1010D0000C4322431A43028210BD0021018041804B
:1010E0008180C1807047002904D0818941F400517A
:1010F00081817047818921F400518181704710B549
:1011000040F66A13C1F3421301F01F040121A1400C
:10111000012B07D0022B07D014303AB102680A43E2
:10112000026010BD0C30F8E71030F6E702688A4321
:10113000026010BD002A03D0828A0A43828270476F
:10114000828A8A4382827047028A22F00F020282D8
:10115000028A0A4302827047828922F400628281F5
:1011600082890A4382817047002904D0818941F035
:10117000020181817047818921F0020181817047DC
:10118000028A22F020020282028A0A430282704707
:10119000002904D0018A41F4804101827047018A0C
:1011A00021F4804101827047C1F3080181807047BA
:1011B0008088C0F308007047818941F00101818176
:1011C0007047028BD2B20283028B42EA0121018373
:1011D0007047028B02F47F420283028B0A43028330
:1011E0007047002904D0818A41F020018182704734
:1011F000818A21F0200181827047002904D0818AF0
:1012000041F0100181827047818A21F010018182B2
:101210007047002904D0818A41F00801818270471B
:10122000818A21F0080181827047002904D08189D8
:1012300041F40041818170478189C1F30E018181B0
:101240007047002904D0818A41F40061818270478F
:10125000818A21F4006181827047828A22F004022F
:101260008282828A0A4382827047002904D0818A5E
:1012700041F0020181827047818A21F0020181825E
:1012800070470246002012880A4200D001207047B1
:101290008A05C9430180704770B5002440F66A1280
:1012A000C1F3421301F01F05012606FA05F2012BD6
:1012B0000CD0022B0DD0838A1340090A8E4000887F
:1012C00030400BB100B10124204670BD838913402A
:1012D000F3E7038A1340F0E740F66A120A0A012195
:1012E0009140C943018070470038014000440040EC
:1012F00000480040004C00400050004010B500F095
:1013000079F902F0E7F900F09FFC00F02FF900F006
:101310001BFC00F0BDFF01F08FFB00214FF4A07318
:10132000F022084600F0E6FF01F08EFA002831D0E6
:101330001DA004F0B3FC22A22821142001F09DF985
:1013400024A25021142001F098F9012127A001F0D6
:101350002CFA012128A001F028FA01212AA001F08D
:1013600024FA2E4A2EA1324804F0A8FC012130486C
:1013700001F01BFA2E48294A2EA1283004F09EFCC9
:101380002B4A3C212832142001F077F900F06CFA46
:10139000002010BD2BA004F081FC30A228211420D5
:1013A00001F06BF9D1E70000484330352046616910
:1013B0006C656420436F6E6E6563740D0A000000F7
:1013C00048433035204661696C656420436F6E6E1A
:1013D00065637400506C6561736520436865616B7B
:1013E00020436F6E6E6563740000000041542B490A
:1013F0004E49540D0A00000041542B434C415353B5
:101400003D300D0A0000000041542B494E514D3D26
:10141000312C392C34380D0A00000000280000203F
:1014200041542B4E414D453D25730D0A00000000EF
:101430000C010020446576696365206E616D653A34
:101440002573000048433035205375636365656438
:1014500020436F6E6E6563740D0A0000484330359B
:10146000205375636365656420436F6E6E656374B6
:10147000000000007047FEE7FEE7FEE7FEE770476A
:1014800010B500F0D1F803F01DFD012803D0BDE830
:10149000104004F00ABB10BD70B52F4D40F225512D
:1014A0002846FFF7F9FE002815D02C4C012084F8BF
:1014B00002042846FFF77CFEC0B22188B1F5806F98
:1014C00009D20A2807D00D2805D02288A11C505423
:1014D0002088401C208070BD10B54FF480742046D9
:1014E000FFF705F8002809D01D48016881F02001A8
:1014F00001602046BDE81040FFF707B810BD70B589
:10150000184D40F225512846FFF7C6FEA0B12846E7
:10151000FFF74EFEC4B2144802F091F800281AD02A
:10152000828801688C548188491C89B281801E2977
:1015300002D30D4802F09BF840F224412846FFF701
:10154000ABFE012807D1084802F091F82846BDE813
:101550007040FFF72DBE70BD00480040FC01002028
:101560000C0C0140004400401006002038B5012159
:101570001420FFF79EFC0120ADF8000004248DF834
:10158000034069460F48FFF78EFAE002ADF800000D
:101590008DF8034069460C48FFF785FA38BD70B5F1
:1015A00004460D4629462046FFF7D8FA012801D007
:1015B000002070BD29462046FFF7D0FA0128F9D057
:1015C000012070BD0008014000100140B0F1807F93
:1015D00001D30120704720F07F414FF0E020491EE9
:1015E00041612A4AF02111700021816107210161C6
:1015F0000020704710B5264826490068B0FBF1F07E
:10160000FFF7E4FF002800D0FEE710BD01B5224837
:10161000009901604FF0E0210A6942F001020A617D
:1016200001680029FCD108BD1B480168002902D0CF
:101630000168491E0160704701B5154817490068E7
:10164000B0FBF1F0FFF7C2FF00204FF0E02103E014
:101650000A69D203FCD5401C009A9042F8D308BD19
:1016600001B50B484FF47A710068B0FBF1F0FFF759
:10167000ADFF00204FF0E02103E00A69D203FCD562
:10168000401C009A9042F8D308BD000023ED00E012
:1016900000000020A08601004800002040420F000A
:1016A0007A4C7B4D08E000231A461946606902F027
:1016B000DDF9642003F060F801212846FFF76FFF91
:1016C0000128F6D1EFE74FF47A7472A27821142042
:1016D00000F0D3FF79A2A021142000F0CEFF01F08A
:1016E000B8FD204603F048F8EFE7684C09E02069B0
:1016F00020B100231A46194602F0B8F9642003F01D
:101700003BF8A0680328F9D1F1E7604C4FF47A75F3
:101710002FE010217348FFF721FA10B1207868B14B
:1017200013E0012170A001F040F872A250211420B2
:1017300000F0A3FF76A004F0B1FA15E000214FF409
:10174000A073F022084600F0D5FD012020707EA293
:101750002821142000F091FF82A25021142000F0D3
:101760008CFF8AA004F09AFA01F078F8284603F07A
:1017700003F800232A461946206902F026FB0128B7
:10178000F2D1C6E741498868401C8860042801D12D
:101790000020886070471CB501F0F6FD032200218F
:1017A000012002F090F8394C206103220021012031
:1017B00002F089F86061206910B180A004F06EFA2F
:1017C000606910B17DA004F069FAAFF247000090A3
:1017D000022301224FF47A717EA003F015FF6060AE
:1017E00003F025FA02464FF0FF300090002301215C
:1017F000606803F05FFD04F02BF9244802211830E3
:10180000CDE900100023802274A1AFF2011002F094
:10181000C1FD1E4803211C30CDE9001000238022A9
:1018200070A1AFF2391002F0B5FD18480421203044
:10183000CDE90010002380226CA1AFF2751002F0F8
:10184000A9FD124805212430CDE900100023802293
:1018500068A1AFF2B31002F09DFD002002F0E3FD9D
:10186000BDE81C4004F00EB91CB5084801210C303D
:10187000CDE900100023802260A1AFF2E50002F064
:1018800089FDBDE81C4003F094B900004C00002025
:1018900000080140506C6561736520507265737378
:1018A000204B65793120546F20496E70757420206B
:1018B00046696E6765727072696E7400506C65611E
:1018C0007365205072657373204B65793220546FB5
:1018D0002064656C6574652046696E676572707218
:1018E000696E74000010014041542B494E510D0A9D
:1018F00000000000506C6561736520636F6E6E655B
:10190000637420426C7565746F6F7468000000002A
:10191000C0B6D1C0C9D0CEB4C1ACBDD3A1A3C7EBB2
:10192000D3C3CAD6BBFAB4F2BFAAC0B6D1C0B5F70A
:10193000CAD4D6FACAD6CBD1CBF7C1ACBDD3C0B6C8
:10194000D1C00D0A000000004843303520636F6E9F
:101950006E656374696F6E20737563636573736618
:10196000756C0000456E74657220796F7572207019
:10197000617373776F726420746F206F70656E206F
:1019800074686520646F6F7200000000C0B6D1C03B
:10199000D2D1C1ACBDD3A1A3B7A2CBCDA1B052458A
:1019A000445F4C4544A1B1BFC9BFD8D6C6B7ADD777
:1019B000AA4C4544B5C60D0A0000000062696E617C
:1019C00072792063726561746520737573636565F0
:1019D000640A000074696D32000000007461736B6A
:1019E000310000007461736B320000007461736B2E
:1019F000330000007461736B340000007374617213
:101A0000745F7461736B000008B54FF44070FEF7AB
:101A1000B3FC27208DF8000002208DF80100032080
:101A20008DF8020001208DF803006846FEF7A9FC3E
:101A300008BD10B586B001218804FFF745FA0121E1
:101A40000820FFF736FA4FF48060ADF81400182034
:101A50008DF8170003208DF81600384C05A9204694
:101A6000FFF721F8E114ADF8141004218DF81710D8
:101A700005A92046FFF717F84FF416400190002003
:101A8000ADF80800ADF80A00ADF80C00ADF8100094
:101A90000C20ADF80E002A4C01A92046FFF7A8FA49
:101AA000FFF7B2FF012240F225512046FFF727FB46
:101AB00001212046FFF717FB40212046FFF7E8FBF6
:101AC00006B010BD10B504462046FFF76DFB80211F
:101AD0002046FFF7D6FB0028F9D010BD2DE9F041D4
:101AE00007460D46164600243846295DFFF7EAFFF3
:101AF000641CB442F8D3BDE8F08170B506460D46CB
:101B000000243046295DFFF7DDFF641C285D0028B6
:101B1000F7D170BD0B490A880280881C704740F2DB
:101B20000140084A0021118082F8021403E0401E9F
:101B300080B2831899700028F9D17047000C0140D9
:101B400000480040FC01002010B586B001210420AF
:101B5000FFF7AFF901218803FFF7ABF94FF40070ED
:101B6000ADF8140018208DF8170003208DF816002A
:101B7000334C05A92046FEF796FF2115ADF8141049
:101B800004218DF8171005A92046FEF78CFF4FF4AD
:101B9000E13001900020ADF80800ADF80A00ADF882
:101BA0000C00ADF810000C20ADF80E00254C01A97A
:101BB0002046FFF71DFA01212046FFF794FA06B0F0
:101BC00010BD10B504462046FFF7EEFA80212046EE
:101BD000FFF757FB0028F9D010BD70B50446194D2A
:101BE000E1B22846FFF7E0FA80212846FFF749FBDB
:101BF0000028F9D0204670BD10B5124C2021204697
:101C0000FFF73FFB0028F9D02046BDE81040FFF762
:101C1000CFBA2DE9F04107460D461646002405E0EF
:101C2000295D3846FFF7CDFF641CE4B2B442F7D318
:101C300040213846FFF725FB0028F9D0BDE8F081A8
:101C4000000801400038014038B501210820FFF7A5
:101C500030F92020ADF8000010208DF8030003209B
:101C60008DF80200124C69462046FEF71CFF012148
:101C7000ADF8001069462046FEF715FF0221ADF8C9
:101C8000001069462046FEF70EFF20212046FEF791
:101C900079FF01212046FEF775FF02212046FEF75D
:101CA00071FF38BD024920201431086070470000E0
:101CB000000C014001B502E00098401E0090009821
:101CC0000028F9D108BD2DE9F84F01214FF4B0707B
:101CD000FFF7EFF803248DF8024018258DF8035024
:101CE0004FF48047ADF800706946FE48FEF7DBFE12
:101CF0004FF40048ADF800806946FA48FEF7D3FE7D
:101D00000120ADF800006946F648FEF7CCFE02203F
:101D1000ADF800006946F348FEF7C5FE8020ADF837
:101D200000006946F048FEF7BEFE4FF48079ADF83A
:101D300000906946EC48FEF7B6FE4FF4007AADF825
:101D400000A06946E848FEF7AEFE4FF4806BADF8A0
:101D500000B06946E448FEF7A6FEFE10ADF800604C
:101D60006946E148FEF79FFE7000ADF80000694645
:101D7000DD48FEF798FEB000ADF800006946DA488D
:101D8000FEF791FEADF800706946D748FEF78BFE6E
:101D9000ADF800806946D448FEF785FEADF80090A6
:101DA0006946D048FEF77FFEADF800A06946CD48F1
:101DB000FEF779FEADF800B06946CA48FEF773FE3B
:101DC0008DF802408DF803501025ADF8005069469B
:101DD000C448FEF768FE2020ADF800006946C148FF
:101DE000FEF761FE2802ADF80000C04F6946384694
:101DF000FEF759FE0420ADF800006946BA48FEF728
:101E000052FE8DF803508DF80240ADF8006069462F
:101E10003846FEF748FE8DF803508DF8024040200A
:101E2000ADF8000069463846FEF73DFEBDE8F88F84
:101E300000B597B03C2108A803F0AFFE1C2101A813
:101E400003F0ABFE01210802FFF728F80120019002
:101E500004200390800607900020029004900590D3
:101E6000069006210891099008210A9110210B91F2
:101E70000C900E900F9010900902119112901390F7
:101E8000149001A81590169008A8FEF77EFB01217A
:101E90000620FEF7AEFC17B000BD10B504204FF0D1
:101EA000D84420804FF0DA410888088808884FF627
:101EB000FF7303EA002208881043A0F50542523A56
:101EC0000DD0D320208008880888088803EA0022E3
:101ED00008881043A0F51341413900D0002010BDFF
:101EE00010B5FFF7DAFF8249C880824AA0F5134394
:101EF0004FF0D8444FF0DA41413B7DD0A0F5054387
:101F0000523B7AD1CF20208000200880C120088059
:101F100030200880ED202080642008800320088085
:101F20001220088081200880E820208085200880F9
:101F30001020088078200880CB202080392008805D
:101F40002C2008800020088034200880022008808F
:101F5000F720208020200880EA20208000200880B0
:101F60000880C020208021200880C12020801120EE
:101F70000880C52020802D2008803320088036204E
:101F80002080002008803A20208055200880B12041
:101F900020800020088017200880B62020800A209A
:101FA0000880A2200880F6202080012008803020B0
:101FB0000880F22020800020088026202080012038
:101FC0000880E0202080D0200880002008800220A7
:101FD0000880072008800B2008801A200880312004
:101FE0000880542008804020088029200880122082
:101FF00008800880088001E02AE028E01720088097
:10200000E1202080D0200880002008800220088065
:102010000720088005200880252008802D200880C2
:1020200044200880452008801C2008801820088053
:10203000162008801C2008801D2008801120208088
:102040001046FFF737FE292020802C20208010BD6D
:10205000CF20208000200880812008803020088048
:10206000ED20208064200880032008801220088052
:1020700081200880E82020808520088010200880AA
:1020800078200880CB202080392008802C200880F0
:10209000002008803420088003200880F72020805A
:1020A00020200880EA202080002008800880B120BD
:1020B0002080002008801B200880B62020800A2075
:1020C0000880A2200880C020208035200880C12000
:1020D000208011200880C5202080452008800880AD
:1020E000C72009E000140140001801400020014011
:1020F00074000020FCBF02002080A2200880F22093
:102100002080002008802620208001200880E020F8
:1021100020800F20088026200880242008800B20A3
:1021200008800E2008800920088054200880A820FC
:102130000880462008800C2008801720088009208D
:1021400008800F2008800720088000200880E120F8
:10215000208000200880192008801B20088004208F
:10216000088010200880072008802A200880472047
:102170000880392008800320088006200880088015
:1021800030200880382008800F20088036202080EA
:10219000C82008802A20208000200880088008802D
:1021A000EF2008802B20208000200880088001205C
:1021B00008803F2008803A20208055200880112088
:1021C00020801046FFF776FD2920208010BD30B515
:1021D00007283CD8F94B1870C4074FF0F0014FF4B2
:1021E000A07215D05A80998036214C062180DA8859
:1021F0004FF0DA41A2F51345413D04D0A2F5054563
:10220000523D08D009E0082242EA4010088004E06C
:1022100059809A80E8E7400108802A202080002029
:10222000088008805888401EC0F307220A80C0B288
:1022300008802B2020800020088008809888401E7D
:10224000C0F307220A80C0B208802C20208030BD55
:1022500070B5DB4D4FF4006421462846FEF794FC30
:1022600040F6FF263046FFF725FD21462846FEF7BB
:1022700089FC3046BDE870401CE5D14A002803D0F7
:1022800040211046FEF780BC40211046FEF77ABC84
:1022900010B5FFF718FDFFF7CBFD0120FFF7EDFFAD
:1022A000FFF7D6FFFFF71CFEC4480078BDE81040DA
:1022B0008DE770B52A244FF0D8463480050A4FF0D8
:1022C000DA442580C5B225801044401E020A2280CF
:1022D000C0B220802B203080080A2080C8B2208025
:1022E000C818401E010A2180C0B2208070BD0123A1
:1022F0001A46DEE770B514461D462B462246FFF708
:10230000D8FFAE4904FB05F04989BDE8704000F0F4
:102310001DBA10B5A94C628890420AD2A288914297
:1023200007D2FFF7E4FF2189BDE81040012000F04B
:102330000DBA10BD2E204FF0D84108804FF0DA4181
:1023400008880888098800F478424FF4FC6303EA9F
:10235000C000024342EAD120704710B5FFF7C7FF23
:10236000BDE81040E6E72DE9FE4F00250026171ACC
:10237000A3EB010882468B46681E002F03DD4FF059
:102380000101019107E003D14FF00001019102E04A
:102390000190C7F10007B8F1000F03DD4FF0010015
:1023A000009007E003D14FF00000009002E00090A1
:1023B000C8F10008474501DD3C4600E044464FF0C7
:1023C0000009601C029017E059465046FFF7A1FF34
:1023D0003D444644A54204DD2D1B019850441FFA9C
:1023E00080FAA64204DD361B009858441FFA80FB91
:1023F00009F101091FFA89F902988145E4DDBDE878
:10240000FE8F2DE9F041064606980F4614461D46FC
:1024100000280DD02B46224639463046FFF749FFAB
:10242000664904FB05F00989BDE8F04100F08EB96A
:102430003444641EA2B23B4639463046FFF793FF50
:102440003D446D1EABB2A2B2A9B23046FFF78BFF7E
:10245000ABB2324639463046FFF785FFABB2A2B287
:10246000A0B23946BDE8F0417DE72DE9FF4F85B0C8
:1024700007468846002416B20320A0EB42000FFA5C
:1024800080F994E00898E8B3254642E0381908EB53
:10249000050A04901FFA8AF180B2FFF73AFF1FFA8B
:1024A0008AF1A7EB040A1FFA8AF0FFF732FF08EB64
:1024B000040081B2A7EB050B03901FFA8BF0FFF726
:1024C00028FFA8EB040081B202901FFA8BF0FFF7FF
:1024D00020FFA8EB050B1FFA8BF11FFA8AF0FFF71C
:1024E00018FF04981FFA8BF180B2FFF712FF0298D1
:1024F00007EB050A81B21FFA8AF0FFF70AFF03987B
:1025000081B200E008E01FFA8AF0FFF702FF6D1CBD
:102510002DB2B542BADD37E0381908EB0605019057
:10252000A9B280B2FFF7F5FEA7EB040AA9B21FFA21
:102530008AF0FFF7EEFE08EB040081B2A7EB060B72
:1025400000901FFA8BF0FFF7E4FEA8EB0405A9B298
:102550001FFA8BF0FFF7DDFEA8EB060B1FFA8BF1DD
:102560001FFA8AF0FFF7D5FE01981FFA8BF180B2AF
:10257000FFF7CFFEA9B2BD19A8B2FFF7CAFE0098B7
:1025800081B2A8B2FFF7C5FE641C24B2B9F1000FF6
:1025900005DA09EB8400801D0FFA80F907E0A01B23
:1025A00009EB80000A300FFA80F9761E36B2B44289
:1025B0007FF768AF09B0BDE8F08F0000740000201D
:1025C000002001402DE9F043203A97B2664EF568AD
:1025D000AA88EB8802FB03F44FEAE47C04EB5C740A
:1025E000C4F3C7042D6807FB0455FFF762FE2C20D7
:1025F0004FF0D841088000214FF0DA4C15E0002060
:1026000033897289802715F8018027FA00F918EAC2
:10261000090F02D0ACF8003001E0ACF80020401CFB
:10262000C0B20828EFD3491CC9B2A142E7D3BDE824
:10263000F083F0B505460E4600244B4F19E0F868CC
:102640007B8881882144994203D90024C188294488
:102650008DB2C088B9882844884201D90024002559
:1026600029462046FFF7AEFF761CF8688088204494
:1026700084B23278002AE2D1F0BDF0B504460D46AE
:102680001646394F19E0F8687B88818821449942C1
:1026900003D90024C18829448DB2C088B988284450
:1026A000884201D90024002529462046FFF78AFFE9
:1026B000761CF8688088204484B23278002AE2D1FF
:1026C000F0BDF0B505460C461646274F19E0F868F0
:1026D000BB88C1882144994203D9002481882944B8
:1026E0008DB2808879882844884201D90025002449
:1026F00021462846FFF766FF761CF868C08820440C
:1027000084B23278002AE2D1F0BD1749C860704720
:102710001548C0687047144A108151817047124AA9
:10272000138903805089088070470F4908817047DA
:102730000D494881704710B50146FFF7E9FFC3888E
:1027400009484288BDE810400020D3E510B50022BA
:102750002C234FF0D84423804FF0DA4301E0198056
:10276000521C8242FBD310BD7400002038B50121F9
:102770004FF48870FEF79DFB1025ADF80050042043
:102780008DF8030003248DF8024069465F48FEF788
:102790008AF92801ADF800008DF803508DF8024049
:1027A00069465B48FEF77FF938BD2DE9F84381465D
:1027B0000F4603254FF47A783AE04FF4807154487D
:1027C000FEF7E0F949465348FFF797F94046FEF710
:1027D0001DFF4FF4FA746846FFF79CF90646BDF8F2
:1027E000000098B14CA1304603F0E2F970B14946BF
:1027F0004AA003F053FA31464CA003F04FFA012FE0
:1028000001D1FFF78CF90020BDE8F8834046FEF7C0
:10281000FDFE641EA4B2DED2494640A003F03EFA9B
:10282000314642A003F03AFA294644A003F036FAB2
:102830006D1EEDB2C1D248A003F030FA012F01D1D4
:10284000FFF76DF90120DFE710B5FFF7F2F8FFF7AA
:102850008DFFBDE81040012144A0A6E72DE9F0411D
:10286000444C94F8020401284DD122880025A11C73
:10287000555441A1A01C03F09BF94FF4A0764FF4EE
:102880007A67C8B13E48016881F0010101603D48A6
:10289000057000213346F0220846FFF72BFD3AA2CF
:1028A00028211420FFF7E9FE3EA23C211420FFF767
:1028B000E4FE3846FEF7D4FE2FA1A01C03F078F901
:1028C00088B92F490120091D086000213346F022F4
:1028D0000846FFF70FFD3BA228211420FFF7CDFE8D
:1028E0003846FEF7BDFE434E3CA13046FFF705F9E2
:1028F000A11C3046FFF701F93FA13046FFF7FDF874
:1029000084F802542580BDE8F081000000100140E9
:1029100000200140004800404F4B000073656E648A
:1029200020434D443A202573000000007265637611
:10293000206261636B3A2025730000004843303504
:102940002073656E6420434D44206661696C2025C8
:10295000642074696D657300484330352073656E7B
:102960006420434D44206661696C200041540D0A87
:1029700000000000FC010020313233340000000070
:102980000C0C01404C000020796F7572207061734F
:1029900073776F726420697320726967687420218D
:1029A0002121000054686520646F6F7220697320D4
:1029B000616C7265616479206F70656E20212121E0
:1029C0000000000070617373776F72642069732078
:1029D0006661696C65642021212100000D0A726521
:1029E00063762048432D303520646174613A0D0AC6
:1029F00000000000003801400D0A000038B54FF417
:102A00004070FDF7B9FC26208DF8000001248DF8F8
:102A100001408DF802408DF803406846FDF7B1FC97
:102A200017208DF800008DF8014002208DF802007B
:102A30006846FDF7A6FC38BD70B588B001210520B9
:102A4000FEF737FA01210420FEF733FA012148048A
:102A5000FEF73AFAFFF7D2FF4FF48074ADF81C404E
:102A600004258DF81F50F94E07A93046FEF71BF8D4
:102A700008210020FEF7D3F8059400248DF81840B3
:102A800010208DF8190001208DF81A0005A8FDF717
:102A9000DDFCADF81C5018208DF81F0003208DF8C8
:102AA0001E0007A93046FDF7FEFF0820ADF81C0008
:102AB0008DF81F5007A93046FDF7F5FF4FF4614030
:102AC0000190ADF80840ADF80A40ADF80C40ADF803
:102AD00010400C20ADF80E00DD4C01A92046FEF799
:102AE00087FA012240F225512046FEF708FB012219
:102AF00040F224412046FEF702FB01212046FEF76A
:102B0000F2FA08B070BD10B5D14C01462046FEF770
:102B10004BFB80212046FEF7B4FB0028F9D010BD06
:102B200010B5EF20FFF7EFFF0120FFF7ECFFC94CD6
:102B30006068000EFFF7E7FF6068C0F30740FFF72B
:102B4000E2FFA088C0F30720FFF7DDFF2079BDE892
:102B50001040D8E7D7E710B50446200AFFF7D3FFA7
:102B6000E0B2BDE81040CEE7CDE710B50446200A3C
:102B7000FFF7C9FFE0B2BDE81040C4E710B5044656
:102B8000B54800F077FD38B10068407A2080B2483F
:102B900000F088FD208810BDFF20208010BD08B502
:102BA0000020009040F6B830FEF75AFDFFF7B8FF5E
:102BB0000120FFF7CFFF0320FFF7CDFF0120FFF734
:102BC000D3FF0520FFF7D1FF4FF4FA70FEF748FD61
:102BD0006846FFF7D3FF08BD38B5044600210091D1
:102BE000FFF79EFF0120FFF7B5FF0420FFF7B3FFBB
:102BF0000220FFF7B9FF2046FFF785FFE01DFFF732
:102C0000B4FF4FF41670FEF72BFD6846FFF7B6FFD2
:102C100038BD2DE9F04107460C4615461E46FFF724
:102C20007FFF0120FFF796FF0820FFF794FF1B208E
:102C3000FFF79AFF3846FFF766FF200AFFF763FFAA
:102C4000E0B2FFF760FF280AFFF75DFFE8B2FFF789
:102C50005AFF07EB1420E1B2084400EB1520E9B25B
:102C600008442430FFF781FF4FF4FA70FEF7F8FCB8
:102C7000794800F0FFFC60B101684C7AC87A897A23
:102C800000EB01203080744800F00CFD2046BDE8C8
:102C9000F081FF20FBE708B500200090FFF740FF20
:102CA0000120FFF757FF0320FFF755FF0320FFF731
:102CB0005BFF0720FFF759FF4FF4FA70FEF7D0FCD7
:102CC0006846FFF75BFF08BD08B500200090FFF7DE
:102CD00027FF0120FFF73EFF0320FFF73CFF052001
:102CE000FFF742FF0920FFF740FF4FF4FA70FEF7AD
:102CF000B7FC6846FFF742FF08BD212854D2DFE841
:102D000000F01114171A1D202326292C2F3253539B
:102D1000535335385353533B53533E4144474A531F
:102D2000534D50004DA002F0B9BF4EA002F0B6BF07
:102D300051A002F0B3BF57A002F0B0BF5BA002F0F9
:102D4000ADBF63A002F0AABF6AA002F0A7BF71A046
:102D500002F0A4BF7DA002F0A1BF80A002F09EBF40
:102D600088A002F09BBF8BA002F098BF93A002F056
:102D700095BF96A002F092BF99A002F08FBFA2A0CB
:102D800002F08CBFA5A002F089BFA8A002F086BF08
:102D9000AAA002F083BFAFA002F080BFB3A002F0F0
:102DA0007DBFB5A002F07ABFB6A002F077BF38B5FC
:102DB00005460C4600200090FFF7B2FE0120FFF709
:102DC000C9FE0620FFF7C7FE0620FFF7CDFE284606
:102DD000FFF799FE200AFFF796FEE0B2FFF793FE99
:102DE00005EB1420E1B208440D30FFF7BEFE4FF4AE
:102DF000FA70FEF735FC6846FFF7C0FE38BD2DE9D6
:102E0000F041002425464FF4FA667710052D16D2BE
:102E1000DFE805F0031A19181700641CA4B28C230C
:102E2000F02278210020FFF765FA9CA2B42114203B
:102E3000FFF723FCFFF7B3FE10B1FFF75EFFE8E1F9
:102E40003AE1DEE1C1E199E16DE1000000080140F5
:102E5000004400408C000020100600204F4B0D0A5B
:102E600000000000CAFDBEDDB0FCBDD3CAD5B4ED84
:102E7000CEF30D0A00000000D6B8CEC6C4A3BFE949
:102E8000C3BBD3D0BCECB2E2B5BDD6B8CEC6A3A10D
:102E90000D0A0000C2BCC8EBD6B8CEC6CDBCCFF17F
:102EA000CAA7B0DC0D0A0D0A00000000D6B8CEC6D5
:102EB000CDBCCFF1CCABB8C9A1A2CCABB5ADB6F807
:102EC000C9FAB2BBB3C9CCD8D5F70D0A0D0A0000B8
:102ED000D6B8CEC6CDBCCFF1CCABCAAAA1A2CCABE2
:102EE000BAFDB6F8C9FAB2BBB3C9CCD8D5F70D0A4A
:102EF0000D0A0000D6B8CEC6CDBCCFF1CCABC2D245
:102F0000B6F8C9FAB2BBB3C9CCD8D5F70D0A0D0AC9
:102F100000000000D6B8CEC6CDBCCFF1D5FDB3A31E
:102F2000A3ACB5ABCCD8D5F7B5E3CCABC9D9A3A886
:102F3000BBF2C3E6BBFDCCABD0A1A3A9B6F8C9FADE
:102F4000B2BBB3C9CCD8D5F70D0A0000D6B8CEC6EF
:102F5000B2BBC6A5C5E40D0A0D0A0000B6D4B1C8BF
:102F6000D6B8CEC6CAA7B0DCA3ACD6B8CEC6BFE230
:102F7000B2BBB4E6D4DAB4CBD6B8CEC6A3A10D0AA0
:102F80000D0A0000CCD8D5F7BACFB2A2CAA7B0DCE0
:102F90000D0A0000B7C3CECAD6B8CEC6BFE2CAB1CA
:102FA000B5D8D6B7D0F2BAC5B3ACB3F6D6B8CEC69C
:102FB000BFE2B7B6CEA70D0A00000000C9BEB3FD40
:102FC000C4A3B0E5CAA7B0DC0D0A0000C7E5BFD5B1
:102FD000D6B8CEC6BFE2CAA7B0DC0D0A000000001A
:102FE000BBBAB3E5C7F8C4DAC3BBD3D0D3D0D0A73C
:102FF000D4ADCABCCDBCB6F8C9FAB2BBB3C9CDBC5E
:10300000CFF10D0A00000000B6C1D0B420464C41FB
:10301000534820B3F6B4ED0D0A000000CEB4B6A8B4
:10302000D2E5B4EDCEF30D0A00000000CEDED0A74D
:10303000BCC4B4E6C6F7BAC50D0A0000BCC4B4E609
:10304000C6F7C9E8B6A8C4DAC8DDB4EDCEF30D0AF8
:1030500000000000BCC7CAC2B1BED2B3C2EBD6B832
:10306000B6A8B4EDCEF30D0A00000000D6B8CEC667
:10307000BFE2C2FA0D0A0000B5D8D6B7B4EDCEF360
:103080000D0A0000C4A3BFE9B7B5BBD8C8B7C8CF05
:10309000C2EBD3D0CEF30D0A00000000506C656186
:1030A000736520507265737320596F75722046697D
:1030B0006E676572000000000120FFF78DFD10B102
:1030C000FFF71BFEA5E0B423F0228C210020FFF7C0
:1030D00011F9B9A2B4211420FFF7CFFA40F2DC5065
:1030E000FEF7BEFABB4BF02200210120FFF791FD55
:1030F00010B1002401258CE0B423F0228C210020A3
:10310000FFF7F8F8B4A2B4211420FFF7B6FA40F69E
:10311000B830FEF7A5FABDE8F041B423F0227821DB
:103120000020FFF7E7B8641CA4B2B423F0228C217E
:103130000020FFF7DFF8AFA2B4211420FFF79DFABB
:10314000FFF72DFD10B1FFF7D8FD62E00220FFF779
:1031500043FD10B1FFF7D1FD5BE0B423F0228C21D9
:103160000020FFF7C7F894A2B4211420FFF785FAD6
:103170003046FEF775FA002402254AE0B423F02217
:103180008C210020FFF7B6F8A6A2B4211420FFF787
:1031900074FA3846FEF764FAFFF77DFD054655B12F
:1031A000A6A2C8211420FFF768FA2846FFF7A5FD5C
:1031B000002400252DE0A6A2C8211420FFF75DFA07
:1031C0003046FEF74DFA032523E0B423F0228C218C
:1031D0000020FFF78FF8A3A2B4211420FFF74DFAC7
:1031E000FFF772FD18B10025FFF787FD11E0A9A2D6
:1031F000B4211420FFF741FA3046FEF731FA0425D6
:1032000007E001210220FFF7D2FDA8B10025FFF75A
:1032100074FD3846FEF724FA042C7FF4F7ADB4238E
:10322000F0228C210020FFF765F8BDE8F041B421C1
:103230009FA21420FFF721BAB423F0228C21002092
:10324000FFF758F8BDE8F041B421A1A21420FFF720
:1032500014BA70B5A74800234FF47A752A46194668
:10326000006800F0B2FD012801D1FFF7C8FDA2A25D
:10327000C8211420FFF701FAFFF791FC002855D16F
:103280000120FFF7A9FC002850D1524BF022002169
:103290000120FFF7BEFCB0B1C823F0227821002046
:1032A000FFF728F8A1A28C211420FFF7E6F94FF4CC
:1032B000FA60FEF7D5F9BDE87040C823F022782106
:1032C0000020FFF717B8C823F02278210020FFF76D
:1032D00011F89EA28C211420FFF7CFF9A2A2A02101
:1032E0001420FFF7CAF9A64C206880F00100206086
:1032F00040F6B830FEF7B4F9206880F00100206095
:10330000C823F02278210020FEF7F4FF9DA28C2133
:103310001420FFF7B2F92846FEF7A2F9BDE8704085
:10332000C823F02278210020FEF7E4BF70BD08B565
:10333000FFF7F6FB0120FFF7E6FB0020FFF7E3FBBA
:103340000020FFF7E0FB4FF47A70FEF789F993480D
:1033500000F090F9B0B100680178EF290DD1417803
:1033600001290AD18179072907D14179009103798F
:10337000C27881788AA002F091FC884800F092F926
:10338000002008BD012008BD10B58DA002F086FC0C
:103390001048001DFFF7CBFF30B11421BDE81040ED
:1033A0008BA20846FFF769B91421BDE810408EA230
:1033B0000846FFF762B9000066696E676572707251
:1033C000696E7420696E70757420737563636565CA
:1033D000640000008C00002066696E676572707280
:1033E000696E7420616C72656164792065786973B7
:1033F00074000000506C65617365205072657373D2
:10340000204B65793120746F20696E707574206669
:10341000696E6765727072696E7420616761696E4A
:103420000000000046696E6765727072696E7420F4
:10343000436F6D706172652E2E2E0000436F6D70AC
:10344000617265204661696C65642021212100005C
:10345000436F6D70617265205375636365656420A9
:10346000212121005468652046696E67657270727B
:10347000696E74204D6F64756C65204973204265D8
:10348000696E672047656E6572617465642E2E2EC5
:10349000000000005468652047656E6572617465C0
:1034A0006420537563636565642021212100000059
:1034B00046696E6765727072696E7420456E7472CB
:1034C00079204661696C656420212121000000009B
:1034D00046696E6765727072696E7420456E7472AB
:1034E00079205375636365737366756C20212121A0
:1034F0000000000060000020496620796F7572208E
:1035000046696E6765727072696E74732061726568
:103510002074686572652C2072756E207468656D04
:10352000206469726563746C7900000054686520DA
:1035300046696E6765727072696E7420697320499E
:103540006C6C6567616C2021212100005468652046
:1035500046696E6765727072696E74206973204384
:103560006F6D70617265000054686520446F6F7202
:10357000206973204F70656E20212121000000001A
:103580000C0C014054686520446F6F7220697320F1
:10359000436C6F736520212121000000100600207C
:1035A000D6B8CEC6C4A3BFE9B5C4B5D8D6B7CEAADF
:1035B0003A307825782578257825780D0A0000009E
:1035C0006173363038C4A3BFE9CAB5D1E900000041
:1035D0004153363038204661696C656420436F6E14
:1035E0006E65637400000000415336303820537517
:1035F000636365656420436F6E6E656374000000ED
:1036000001600021416081607047D0E9002180683D
:103610005140814201D101207047002070478168EC
:103620004068814201D10120704700207047006846
:103630004FF0FF3202EB4000491C0840704700B5D4
:1036400003461846FFF7E1FF08B1002000BD996866
:103650001869814203D11846FFF7E9FF186119681C
:103660001869491E084003EB8000406900BD0169EC
:103670008160704700B503461846FFF7D0FF08B1D8
:10368000002000BD5968D868814203D11846FFF771
:10369000CEFFD8601968D868491E084003EB800047
:1036A000406900BD0268C1680023521E114000EB52
:1036B000810149698B80C1684160704700203149B0
:1036C000002251F830300BB141F83020401C022864
:1036D000F7D370472DE9F04100242A4D00202860DF
:1036E0006860A860E860022105F11000FFF788FF1C
:1036F00005F1100605F12C07C4EB041007EB4000A0
:1037000045F8340006EB840105EBC400486155F828
:1037100034001E2102F041FA641C022CECD3BDE8F7
:10372000F08170B505460E46002411E015481030B2
:10373000FFF785FF002812D00268295D11558188A6
:10374000491C89B2818010A002F0A8FA641CE4B27E
:10375000B442EBD3BDE870400A48103087E770BD33
:1037600000B508481030FFF785FF002808D0026830
:1037700080880021115403485DF804EB103091E774
:1037800000BD0000000600200D0A646174615F70D6
:103790002D3E6C656E203D256400000000F108019F
:1037A00041604FF0FF328260C16001610021016021
:1037B000704700210161704742684A6093688B60DE
:1037C00093685960916008610168491C0160704705
:1037D00030B50C68621C02D000F1080202E00269F8
:1037E00004E01A4653681D68A542FAD953684B6035
:1037F00099608A60516008610168491C016030BDB0
:103800000169D0E901329A60D0E901235A604A681F
:10381000824201D182684A60002202610868401E2B
:103820000860704770B504460D46002C05D140F283
:103830001B12F8A1FEA002F031FA02F009F9D4E956
:103840000F20216802FB001161600021A163216843
:10385000A160E06B2268216C401E00FB0121E16049
:103860004FF0FF3084F8440084F8450004F1100064
:103870004DB1FFF793FF04F12400FFF78FFF02F033
:1038800001F9012070BD21690029F8D001F04BFA3F
:103890000028F4D0EA494FF080500860BFF34F8F02
:1038A000BFF36F8FEBE710B5029C002909D02260AF
:1038B000E063216401212046FFF7B4FF0020A064EB
:1038C00010BD2460F4E7F8B505460E461746002DF6
:1038D00005D14FF4C472CFA1D5A002F0DFF986B1B3
:1038E00005FB06F04C3001F088FF04463CB104F1C2
:1038F0004C023B46314628460094FFF7D4FF204651
:10390000F8BD0020EEE72DE9F041044617460026F9
:10391000A56B226C002A1FD07FB1E06802F024F969
:10392000E168206C091AE1602268914202D2616864
:10393000081AE060022F0DD00EE0A06802F014F922
:10394000216CA0680844A0606168884204D32068A4
:10395000A06001E005B16D1E6D1CA5633046BDE899
:10396000F0812DE9F3410F460098846C0026002C6D
:1039700005D140F6CE12A7A1ADA002F08FF9A06B41
:10398000E16B884205D340F6CF12A2A1A8A002F0B5
:1039900085F9A06BE16B88420CD294F945503A4608
:1039A00069462046FFF7AFFF0646681C05D06D1C30
:1039B00084F845503046BDE8FC81606A0028F9D0A3
:1039C00004F1240001F0AFF90028F3D00126F1E75B
:1039D0002DE9F041044602F03BF894F9455004F11A
:1039E000240613E0A06C38B100212046FFF7B9FF90
:1039F00050B101F063FA07E0606A48B1304601F067
:103A000092F908B101F05AFA6D1E6DB2002DE9DC91
:103A10004FF0FF3684F8456002F034F802F018F8F1
:103A200094F9445004F1100709E0206948B1384680
:103A300001F079F908B101F041FA6D1E6DB2002D67
:103A4000F3DC84F84460BDE8F04102F01BB810B527
:103A5000044601F0FDFFA06BE16B884201D1012417
:103A600000E0002402F00EF8204610BD2DE9FF47CB
:103A700082B004468A4698460025002C05D140F2C3
:103A8000D92264A16AA002F009F9BAF1000F07D1A6
:103A9000206C28B140F2DA225EA165A002F0FEF8A7
:103AA000B8F1020F08D1E06B012805D040F2DB220B
:103AB00058A15FA002F0F2F801F004FA38B90498B6
:103AC00028B140F2DE2253A159A002F0E7F84FF0EE
:103AD00000094FF080565A4F01F0BAFFA06BE16B1E
:103AE000884206D3B8F1020F03D0049860B37DB3C7
:103AF00033E0424651462046FFF705FFA16C51B125
:103B000041462046FFF72DFFC0B13E60BFF34F8F07
:103B1000BFF36F8F12E0616A51B104F1240001F02C
:103B200002F958B13E60BFF34F8FBFF36F8F05E0CE
:103B300020B13E60BFF34F8FBFF36F8F01F0A2FF44
:103B4000012006B0BDE8F08701F09CFF0020F8E7F7
:103B5000FFE7684601F059F9012501F093FF00F0F5
:103B6000BEFD01F075FF94F94400401C01D184F8BA
:103B7000449094F94500401C01D184F8459001F02F
:103B800081FF04A9684601F052F930B12046FFF7E1
:103B90001FFF00F0F5FC0020D3E72046FFF757FF9A
:103BA00088B104F11000049901F061F82046FFF794
:103BB0000FFF00F0E5FC00288ED13E60BFF34F8F71
:103BC000BFF36F8F88E72046FFF702FF00F0D8FCB5
:103BD00082E72DE9F0470446894615469846002CB1
:103BE00005D140F29F320BA111A002F057F8B9F1B4
:103BF000000F07D1206C28B14FF4687205A10CA00A
:103C000002F04CF8B8F1020F24D1E06B012821D06A
:103C100018E000002E2E5C2E2E5C46726565525414
:103C20004F535C7372635C71756575652E6300003C
:103C30004572726F723A25732C25640D0A000000DC
:103C400004ED00E040F2A132AFF23801AFF2200003
:103C500002F024F801F03DFF5020EFF3118780F3CC
:103C60001188BFF34F8FBFF36F8FA06BE16B88425A
:103C700006D3B8F1020F03D0002087F3118861E763
:103C800094F94560424649462046FFF73CFE701CC9
:103C900004D0761C84F845600120EEE7A06C012674
:103CA00048B141462046FFF75CFE0028F4D0002DC5
:103CB000F2D02E60F0E7606A0028EDD004F1240015
:103CC00001F031F80028E7D0002DE5D02E60E3E7C1
:103CD0002DE9F04104460D46002C07D140F23C424C
:103CE000AFF2D001AFF2B80001F0D8FF206C38B1CC
:103CF0004FF48862AFF2E401AFF2CC0001F0CEFFE6
:103D0000206848B9606838B140F24542AFF2FC0122
:103D1000AFF2E40001F0C2FF01F0DBFE5020EFF350
:103D2000118680F31188BFF34F8FBFF36F8FA16BA4
:103D3000E06B884224D994F94500491CA163411CD9
:103D400004D0401C84F8450001201AE0A06C012733
:103D500048B100212046FFF704FE0028F4D0002DD2
:103D6000F2D02F60F0E7606A0028EDD004F1240063
:103D700000F0D9FF0028E7D0002DE5D02F60E3E761
:103D8000002086F31188EAE510B5044601F060FED4
:103D9000A06B20B1002401F075FE204610BD012467
:103DA000F9E730B40B46026C002A0CD0C16811440C
:103DB000C1604468A14201D30168C160C16830BCE0
:103DC000184601F0D1BE30BC70472DE9FF4F83B0DB
:103DD00004468A469B460026002C07D140F2DC426E
:103DE000AFF2D011AFF2B81001F058FFBAF1000FE6
:103DF00009D1206C38B140F2DD42AFF2E811AFF2E8
:103E0000D01001F04BFF01F05DF848B9059838B1CA
:103E10004FF49C62AFF20421AFF2EC1001F03EFFD0
:103E20004FF000094FF08057DFF8148401F010FEC6
:103E3000A56B6DB3E66851462046FFF7B2FFBBF1B4
:103E4000000F13D0E660606A50B104F1240000F066
:103E50006AFF28B1C8F80070BFF34F8FBFF36F8FB0
:103E600001F010FE012007B0BDE8F08F6D1EA563C4
:103E700020690028F4D004F1100000F054FF00285D
:103E8000EED0C8F80070BFF34F8FBFF36F8FE7E736
:103E9000059808B126B107E001F0F4FD0020E2E743
:103EA00001A800F0B2FF012601F0ECFD00F017FCC4
:103EB00001F0CEFD94F94400401C01D184F84490F7
:103EC00094F94500401C01D184F8459001F0DAFDD9
:103ED00005A901A800F0ABFF58B12046FFF778FD17
:103EE00000F04EFB2046FFF74FFF00289ED0002039
:103EF000B9E72046FFF748FF90B104F12400059987
:103F000000F0B5FE2046FFF763FD00F039FB002806
:103F10008CD1C8F80070BFF34F8FBFF36F8F85E768
:103F20002046FFF755FD00F02BFB7FE72DE9F0471A
:103F3000044689469046002C07D14FF4B462AFF294
:103F40002C31AFF2143001F0A9FEB9F1000F09D104
:103F5000206C38B140F2A152AFF24831AFF23030AC
:103F600001F09CFE01F0B5FD5020EFF3118780F3C6
:103F70001188BFF34F8FBFF36F8FA66BF6B194F923
:103F8000445049462046FFF70CFF761EA663681C86
:103F900004D06D1C84F84450012010E020690028F2
:103FA000FAD004F1100000F0BEFE0028F4D0B8F101
:103FB000000FF1D00120C8F80000EDE7002087F3E2
:103FC0001188BFE52DE9F04104460F46002C07D1CA
:103FD00040F2FC52AFF2C431AFF2AC3001F05EFE01
:103FE0004FB9206C38B140F2FD52AFF2D831AFF288
:103FF000C03001F053FE206C38B940F2FE52AFF2EF
:10400000EC31AFF2D43001F049FE01F062FD5020F6
:10401000EFF3118580F31188BFF34F8FBFF36F8FDC
:10402000A06B38B1E66839462046FFF7BAFEE66075
:10403000012000E0002085F3118890E410B50446CB
:10404000002C07D140F22F62AFF23841AFF220408E
:1040500001F024FE01F0FCFCA46B01F013FD2046EE
:1040600010BD10B50446002C07D140F24162AFF2FA
:104070005C41AFF2444001F011FE01F0E9FCD4E9EB
:104080000E10441A01F0FEFC204610BD10B5044687
:10409000002C07D140F25162AFF28841AFF270407C
:1040A00001F0FCFDA06B10BD0021664A02EBC103CC
:1040B0005B68834206D1002042F8310002EBC10167
:1040C00048607047491C0A29F0D3704710B5044670
:1040D000002C07D140F25D62AFF2C841AFF2B040B0
:1040E00001F0DCFD2046FFF7DFFF2046BDE8104071
:1040F00001F0EABB10B50446002C07D140F29372E0
:10410000AFF2F041AFF2D84001F0C8FDA06B08B1AA
:10411000002010BD012010BD10B50446002C07D1B1
:1041200040F2BA72AFF21451AFF2FC4001F0B6FDAA
:10413000A06BE16B884201D1012010BD002010BDB1
:1041400010B500223F4B53F832401CB1521C0A2AD2
:10415000F9D310BD43F8321003EBC201486010BD23
:1041600010B500240021374A02EBC1035B6883428B
:1041700002D152F8314002E0491C0A29F4D320460A
:1041800010BD70B504460D46164601F061FC94F969
:1041900044304FF000005B1C01D184F8440094F9D6
:1041A0004510491C01D184F8450001F06BFCA06B5F
:1041B00028B93246294604F1240000F098FD204633
:1041C000BDE8704004E400220421FFF77CBB70B519
:1041D00004460D4601F03CFCA06C08B1002405E04B
:1041E000A06B08B1002401E0A564012401F04AFCA1
:1041F000204670BD10B50446A06C884201D0002056
:1042000010BDA06B08B1002010BD01F021FC002002
:10421000A06401F037FC012010BD08B50023009315
:104220000A466946FFF7D1FD009808BD08B5002190
:10423000009100226946FFF779FE009808BD000052
:1042400004ED00E06806002070B50024FB4D04EB8F
:10425000840005EB8000FFF7A1FA641C202CF6D344
:10426000F748FFF79BFAF6481430FFF797FAF4483F
:104270002830FFF793FAF2483C30FFF78FFAF04806
:104280005030FFF78BFAEF48ED49416314318163F9
:1042900070BD70B5044601F0DBFBEA4DA868401C18
:1042A000A860286810B1686938B10CE02C60A86873
:1042B000012808D1FFF7C8FF05E02868E16AC06A55
:1042C000884200D82C60686A401C6862E06A01215C
:1042D0002A69814011432961D84900EB800001EB34
:1042E0008000211DFFF768FA01F0CCFB6869002807
:1042F0000CD02868E16AC06A884207D2D2494FF0E0
:1043000080500860BFF34F8FBFF36F8F70BD2DE9F2
:10431000F0478146DDE908580A9C0E469A46206B14
:10432000521E00EB820020F00707780705D040F20C
:104330002B32C6A1CCA001F0B1FC00202218315CC8
:1043400082F83410315C11B1401C1028F6D30026DD
:1043500084F84360202D00D31F25E562201DFFF760
:1043600028FA04F11800FFF724FA2461C5F12000AF
:10437000A0616462666484F84860524649463846E3
:1043800001F00DFB2060B8F1000F01D0C8F800402B
:10439000BDE8F0872DE9FF5F8146DDE90E788A46AA
:1043A00016469B46B00001F028FA054628000AD0C0
:1043B0004C2001F022FA04460CB1256304E02846A3
:1043C00001F082FA00E000248CB10020CDE9024027
:1043D000CDE900785B46324651464846FFF797FFE5
:1043E0002046FFF756FF012004B0BDE8F09F4FF0D4
:1043F000FF30F9E79348416B0968002905D0416B0C
:10440000C968C9684968816270474FF0FF318162AD
:10441000704710B50446206B01F056FA2046BDE8FF
:10442000104001F051BA70B5044601F011FB854D02
:1044300004B92C68201DFFF7E3F958B9E06A7F4AF8
:1044400000EB800152F8211021B901218140286937
:1044500088432861A06A18B104F11800FFF7D0F969
:10446000686A401C68622868844208D17448211D2B
:104470003C30FFF7A1F96868401C686007E0A86855
:10448000401EA8602046FFF7C4FFFFF7B3FF01F00E
:10449000F9FA6869002812D0286884420FD1286B85
:1044A00028B140F2654269A16FA001F0F7FB6649AF
:1044B0004FF080500860BFF34F8FBFF36F8F70BD18
:1044C0002DE9F04100265F4F386B002808D0B8690D
:1044D000401CB861F86900B101263046BDE8F081A2
:1044E000FD686D1CFD608DB9786B006828B140F6E1
:1044F000D91256A15CA001F0D1FB786BB96B79633E
:10450000B863386A401C3862FFF774FFB86ADFF896
:104510002C8185420DD3786B006838B1786BC06808
:10452000C468606885420ED2B86202E04FF0FF3086
:10453000B8623868C06A00EB800058F82000012893
:10454000C8D90126C6E7201DFFF75AF9A06A18B19D
:1045500004F11800FFF754F9E06A01213A6981403B
:104560001143396100EB800008EB8000211DFFF74B
:1045700023F9E06A3968C96A8842CCD30126CAE7C0
:104580002DE9F041002400272E4D286B002805D18D
:104590004FF4FD622DA134A001F080FB01F058FA28
:1045A000286B401E2863286BF0BBA868E0B3DFF8D7
:1045B0009080012608F128081DE0D8F80C00C46896
:1045C00004F11800FFF71CF9201DFFF719F9E06A44
:1045D0002A6906FA00F111432961184900EB8000AD
:1045E00001EB8000211DFFF7E7F8E06A2968C96A3E
:1045F000884200D3EE61D8F800000028DDD10CB16C
:10460000FFF7F8FEAC6944B1FFF75AFF00B1EE6165
:10461000641E002CF8D10020A861E86920B10127B0
:1046200009493807086000E003E0BFF34F8FBFF38C
:104630006F8F01F027FA384650E70000B8060020D7
:10464000380900209400002004ED00E02E2E5C2E9E
:104650002E5C4672656552544F535C7372635C7492
:1046600061736B732E6300004572726F723A25732B
:104670002C25640D0A0000002DE9F04104460F4688
:10468000FE4EF5683068001DFFF7BAF838B930689B
:1046900090F82C1001208840316981433161601C01
:1046A00007D137B13168BDE8F041091DF448FFF783
:1046B00083B82C4430684460AC4206D23168B06B99
:1046C000091DBDE8F041FFF783B83168706B091D23
:1046D000FFF77EF8B06A844200D2B462FEE6E74893
:1046E000016B491C016370472DE9F04105460E46F8
:1046F0000024002D07D140F27942AFF2B001AFF2B1
:10470000980001F0CBFA3EB940F27A42AFF2C40110
:10471000AFF2AC0001F0C2FAD84F386B38B140F2BA
:104720007B42AFF2D801AFF2C00001F0B7FAFFF759
:10473000D6FFFA682B689919934205D98B4208D99C
:10474000914206D9012404E08B4201D8914200D95C
:10475000012429601CB1881A0021FFF78DFFFFF7A3
:104760000FFF002807D1C7494FF080500860BFF302
:104770004F8FBFF36F8FB1E610B504460020002CB9
:1047800012D0BE48006B38B140F2CF42AFF24411B4
:10479000AFF22C1001F082FAFFF7A1FF00212046B2
:1047A000FFF76AFFFFF7ECFE002807D1B5494FF08D
:1047B00080500860BFF34F8FBFF36F8F10BD70B58F
:1047C0000546002D07D140F2FB42AFF28011AFF257
:1047D000681001F063FAA94E3068854201D10020CB
:1047E00070BD01F035F96C6901F04CF9706B8442D1
:1047F00002D0B06B844201D1022070BDA048844237
:1048000005D1A86A08B1022070BD032070BD9C4884
:104810001438844202D00CB1012070BD042070BD58
:1048200010B5044601F014F90CB994480468E46A20
:1048300001F028F9204610BD10B5044601F049F9F1
:104840005020EFF3118180F31188BFF34F8FBFF336
:104850006F8F0CB989480468E06A81F3118810BD34
:104860002DE9F04104460D460026202D07D34FF4D4
:10487000B062AFF22821AFF2102001F00FFA202D24
:1048800000D31F2501F0E4F87C4F04B93C68D4F84C
:104890002C80A8453CD0454508D93868844209D0C9
:1048A0003868C06AA84205D8012603E03868844207
:1048B00000D10126E562A069002802DBC5F12000D5
:1048C000A061714D08EB8801606905EB81018842A8
:1048D00015D1201DFEF794FF012120B93A6901FA94
:1048E00008F082433A61E06A3A69814011433961D4
:1048F00000EB800005EB8000211DFEF75DFF3EB15F
:1049000060494FF080500860BFF34F8FBFF36F8F47
:10491000BDE8F04101F0B6B870B5584D286B0028DD
:1049200002D00120E86170BD0020E8612869B0FA7A
:1049300080F0C0F11F00544E00EB800456F82400B4
:1049400038B940F6F622AFF2FC21AFF2E42001F0D4
:10495000A5F906EB840041684968416000F108024E
:10496000914201D1496841604068C068286070BDCB
:1049700070B5044601F06CF8404D04B92C68201D58
:10498000FEF73EFF58B9E06A3F4A00EB800152F85B
:10499000211021B901218140286988432861A06A3A
:1049A00018B104F11800FEF72BFF211D3448FEF763
:1049B00003FF01F067F8686928B101F049F8FFF7D3
:1049C00019FD01F05FF82868844213D1686990B13D
:1049D000286B38B140F25762AFF29031AFF27830C5
:1049E00001F05CF927494FF080500860BFF34F8F0A
:1049F000BFF36F8F70BD2248A9680068884202D15A
:104A00000020286070BDBDE8704085E770B50025C6
:104A10000446002807D140F28162AFF2D031AFF2F4
:104A2000B83001F03BF916496069884205D1A06AA7
:104A30002839884201D000B90125284670BD70B5DB
:104A40000446002807D140F2AB62AFF20041AFF25A
:104A5000E83001F023F9002C34D0084D2868844256
:104A600030D000F0F5FF2046FFF7D0FF30B3201D17
:104A7000FEF7C6FEE06A0121814007E094000020B5
:104A80008809002004ED00E0B80600202A691143DF
:104A90002961FA4900EB800001EB8000211DFEF73F
:104AA0008BFEE06A2968C96A884207D3F4494FF04F
:104AB00080500860BFF34F8FBFF36F8FBDE8704029
:104AC00000F0E0BF70BD2DE9F0410026044600284B
:104AD00007D140F2E262AFF28C41AFF2744001F0D4
:104AE000DDF800F0F6FF5020EFF3118580F3118818
:104AF000BFF34F8FBFF36F8F2046FFF787FF38B1AB
:104B0000E04F386B40B104F11801DF48FEF754FE66
:104B100085F311883046E1E4E06A3968C96A884261
:104B200000D30126201DFEF76BFEE06A01213A69E1
:104B3000814011433961D14900EB800001EB8000D5
:104B4000211DFEF739FEE3E770B5CF4ECD4D14368B
:104B50001CE0FFF7C4FD306820B10024FFF710FD12
:104B6000A4B901E00124F9E700F072FFF068C4681D
:104B7000201DFEF745FEA868401EA8606868401E1C
:104B8000686000F07FFF2046FFF743FC686800285C
:104B9000DFD170BDB94E4FF08054B94DFFF7D4FF4F
:104BA00030680128FAD92C60BFF34F8FBFF36F8FA5
:104BB000F4E71CB5B34800242C30CDE9004023466F
:104BC0008022B2A1B348FFF7E5FB012801D100F034
:104BD000DCFC01280CD0401C1CD140F28472AFF2E6
:104BE0009451AFF27C5002B0BDE8104001F056B8CD
:104BF000502080F31188BFF34F8FBFF36F8FA14810
:104C00004FF0FF31816201214161C460BDE81C4069
:104C100000F0DEBE1CBD502080F31188BFF34F8F23
:104C2000BFF36F8F97490020486100F005BF95489A
:104C3000C068704710B500F04CFF9248C06810BDC6
:104C400090488068704710B5002802D004461CB117
:104C50000AE08C480468FAE740F68C02AFF214616F
:104C6000AFF2FC5001F01AF804F1340010BD70B539
:104C700004460D46002C07D140F60632AFF23461EF
:104C8000AFF21C6001F00AF87E4801682046183136
:104C9000FEF79EFD2846BDE870400121ECE42DE9B9
:104CA000F04105460E461746002D07D140F6173253
:104CB000AFF26861AFF2506000F0F0FF714C206B12
:104CC00038B940F61B32AFF27C61AFF2646000F09D
:104CD000E5FF216846F000408861216828461831C8
:104CE000FEF76AFD3846BDE8F0410121C4E470B525
:104CF00006460D461446002E07D140F63132AFF27B
:104D0000B461AFF29C6000F0C9FF5E4801683046B4
:104D10001831FEF751FD0CB14FF0FF352146284602
:104D2000BDE87040A8E42DE9F041C068C468002CDB
:104D300007D140F66132AFF2EC61AFF2D46000F01F
:104D4000ADFF04F118000746FEF75AFD4D4D2A6BE2
:104D500001265AB139464C48FEF72EFDE06A296813
:104D6000C96A884214D90120EE6165E4201DFEF76E
:104D700047FDE06A2A6906FA00F1114329613F49BB
:104D800000EB800001EB8000211DFEF715FDE5E73B
:104D9000002051E470B506460C463A4D286B0028B9
:104DA00007D140F69932AFF25C71AFF2447000F077
:104DB00075FF44F000403060F4683CB940F6A13221
:104DC000AFF27871AFF2607000F068FF3046FEF726
:104DD00017FD201DFEF714FDE06A01262A6906FA78
:104DE00000F111432961254900EB800001EB8000AF
:104DF000211DFEF7E1FCE06A2968C96A884202D9F0
:104E00000120EE6170BD002070BD10B50446002C7D
:104E100007D140F6C132AFF2CC71AFF2B47000F0FE
:104E20003DFF1848016A2160C068606010BD70B520
:104E300004460D46002C07D140F6CB32AFF2F47198
:104E4000AFF2DC7000F02AFF3DB940F6CC32AFF68D
:104E50000401AFF2EC7000F021FF00F0F9FD094A07
:104E6000D06829684B1C17D02368126A934215D06A
:104E70006268824212D801241CE00000B8060020BB
:104E800004ED00E0940000206009002049444C45F6
:104E900000000000954B000800240BE06268801AB7
:104EA000884206D2081A28602046FFF7AEFF002489
:104EB00000E0012400F0E6FD204670BDEA49012033
:104EC000C8617047E8484169002903D0006B18B1F8
:104ED000002070470120704702207047E2490868AF
:104EE00080690A680968D26AC2F120028A61704743
:104EF00070B506460C4600F0ABFDDB4D2868406CF3
:104F000080B92A68012082F848005CB1012120465E
:104F1000FFF7B2FBD5494FF080500860BFF34F8FC9
:104F2000BFF36F8F00F0AEFD00F092FD2868446C77
:104F3000002034B116B12968486402E02A68611E75
:104F40005164296881F8480000F09CFD204670BD3E
:104F50002DE9F04781460F461646984600F078FD49
:104F6000C14D286890F84800022817D02C68606C62
:104F700020EA090060642968012081F84800B8F13E
:104F8000000F0BD001214046FFF776FBB7494FF0E9
:104F900080500860BFF34F8FBFF36F8F00F072FD3A
:104FA00000F056FD16B12868406C3060286890F813
:104FB000480001280DD02868416CB94341640124A0
:104FC0002968002081F8480000F05CFD2046BDE81B
:104FD000F0870024F4E72DE9F04104460D469046A1
:104FE0001F460126002C07D141F2FD02AFF6A411A5
:104FF000AFF68C1000F052FE00F02AFD0FB1606C8D
:10500000386094F84800022184F84810B8F1050F80
:1050100013D2DFE808F01203070B0D00616C29437F
:1050200061640AE0616C491C616406E0656404E047
:10503000022801D0656400E00026012828D1201D47
:10504000FEF7DEFB884DE06A01212A6981401143A9
:105050002961874900EB800001EB8000211DFEF7EC
:10506000ABFBA06A38B141F23512AFF62021AFF6A2
:10507000082000F013FEE06A2968C96A884207D94F
:105080007A494FF080500860BFF34F8FBFF36F8FA6
:1050900000F0F8FC30463EE52DE9F0470446DDF827
:1050A00020800D4691469A460127002C07D141F2F7
:1050B0006812AFF66821AFF6502000F0EFFD00F067
:1050C00008FD5020EFF3118680F31188BFF34F8F56
:1050D000BFF36F8FBAF1000F02D0606CCAF8000006
:1050E00094F84800022184F84810B9F1050F13D252
:1050F000DFE809F01203070B0D00616C29436164BE
:105100000AE0616C491C616406E0656404E0022801
:1051100001D0656400E00027012832D1A06A38B1CF
:1051200041F2AF12AFF6DC21AFF6C42000F0B6FDBD
:105130004D4D286B4FF0010978B104F118014D482D
:10514000FEF73AFBE06A2968C96A884219D9B8F1C2
:10515000000F14D0C8F8009013E0201DFEF750FB9C
:10516000E06A2A6909FA00F11143296100EB800124
:105170003F4800EB8100211DFEF71EFBE2E7C5F86A
:105180001C9086F31188384621E72DE9F04104464A
:105190008846002C07D141F2E312AFF65031AFF64A
:1051A000383000F07BFD00F094FC5020EFF31187C5
:1051B00080F31188BFF34F8FBFF36F8F94F84800CF
:1051C000022184F84810616C491C6164012830D1C7
:1051D000A06A38B141F20922AFF69031AFF67830CB
:1051E00000F05CFD204D286B012678B104F1180118
:1051F0002048FEF7E1FAE06A2968C96A884218D9AE
:10520000B8F1000F14D0C8F8006012E0201DFEF7BE
:10521000F7FAE06A2A6906FA00F111432961144994
:1052200000EB800001EB8000211DFEF7C5FAE2E7EC
:10523000EE6187F311886EE410B500280BD00446A8
:1052400000F006FC94F84800022807D0002400F083
:1052500019FC204610BD04480468F1E7002084F8DA
:1052600048000124F3E700009400002004ED00E072
:10527000B80600206009002070B50024416000617C
:10528000F94D91420AD8D11A8269914201D3012481
:105290000EE0011D2869FEF79BFA09E09A4203D24D
:1052A000994201D3012403E0011DE868FEF790FA5A
:1052B000204670BD2DE9FE4F0546DDF830A00E46B4
:1052C000904699460027002D05D14FF4D372E7A1EF
:1052D000EDA000F0E3FCE44C2068F8B10096CDF8B6
:1052E00004800295062E13DAFFF7ECFD022807D0A2
:1052F00000231A4669462068FEF7B8FB07460DE012
:105300000023524669462068FEF7B0FB074605E0D9
:1053100000234A466946FEF75CFC07463846BDE86E
:10532000FE8FF8B5D04E25E0C0680568C468201D22
:10533000FEF766FA616A20468847E069012819D1BC
:10534000A0692844A84206D960602461211DF06844
:10535000FEF73EFA0EE000200346014600902A4682
:105360002046FFF7A7FF28B940F29232BFA1C6A09E
:1053700000F094FCF06801680029D5D1F06831692B
:10538000F1603061F8BD70B50546FFF750FC04468A
:10539000B54EB068844204D2FFF7C3FF01202860F5
:1053A00001E000202860B460204670BD70B586B072
:1053B000AD4E4CE00398002849DB059C606910B1B4
:1053C000201DFEF71DFA02A8FFF7DDFF0546039832
:1053D0000A283CD2DFE800F00505053B2738050523
:1053E0003B270498A169034601442A462046FFF75B
:1053F00043FF00282BD0616A20468847E0690128D6
:1054000025D1002000900498A16900234218194674
:105410002046FFF74FFFD0B940F2213293A19AA066
:1054200000F03CFC13E00498A06128B94FF44E72E0
:105430008EA195A000F032FCA0692B4641192A46A6
:105440002046FFF719FF02E0204600F03DFA002356
:105450001A4603A93068FEF7B8FC0028AAD106B0A6
:1054600070BDF8B505460E467F48C068C068C46880
:10547000201DFEF7C5F9E069012816D1A0692B4669
:10548000411932462046FFF7F7FE70B1002003466F
:10549000014600902A462046FFF70CFF28B94FF43A
:1054A000027272A178A000F0F9FB616A01B0204697
:1054B000BDE8F0400847F8B506460D46FFF70FF97E
:1054C0006846FFF760FF0446009810B1FFF758F8F0
:1054D000F8BD45B9A64206D8FFF752F82146304636
:1054E000FFF7BFFFF8BD60481DB10169096891B1C0
:1054F0000025311B2A460068FEF743FEFFF740F8FF
:105500000028EFD164494FF080500860BFF34F8FFF
:10551000BFF36F8FF8BD0125EBE75349CA681168E7
:10552000002904D00021016019B100207047012139
:10553000F9E7D0680068704708B56846FFF7EDFFE7
:105540000099FFF7B8FFFFF731FFF6E710B500F05D
:105550007FFA454C2068A0B95048FEF71FF94F4824
:105560001430FEF71BF94D48E06014302061002232
:105570000C210A20FEF7A7F9206010B148A1FEF720
:10558000DFFDBDE8104000F07DBA1CB50024FFF738
:10559000DDFF3548006860B133481F21001DCDE9AB
:1055A000001000234FF480723FA14148FEF7F2FE45
:1055B00004462CB940F233122CA133A000F06EFB4C
:1055C00020461CBD2DE9F0470646DDE908940D464E
:1055D00017469846002D05D14FF4C67223A12AA084
:1055E00000F05CFB002C0DD0FFF7B0FF2660A5613A
:1055F000E761C4F82080C4F82490201DBDE8F0477E
:10560000FEF7D7B8BDE8F0872DE9FC4706460A9DAE
:105610000F4690469946282000F0EFF804463CB12A
:10562000CDE900544B46424639463046FFF7CAFFA3
:105630002046BDE8FC8710B50B4C6068002805D1FA
:105640004FF4E87209A110A000F028FB606810BDBB
:1056500010B50446002805D140F2D91203A10AA0D2
:1056600000F01CFBA06910BDD00000202E2E5C2E87
:105670002E5C4672656552544F535C7372635C7462
:10568000696D6572732E63004572726F723A25738D
:105690002C25640D0A00000004ED00E09C090020A8
:1056A000546D725100000000546D722053766300F7
:1056B0003955000810B50446002807D140F2E3121E
:1056C000AFF25801AFF2400000F0E8FA6068CAE7B4
:1056D00010B50446002807D140F2ED12AFF2740174
:1056E000AFF25C0000F0DAFA2068BCE710B50446BF
:1056F000002807D140F2DA32AFF29001AFF2780021
:1057000000F0CCFA00F0A4F9606908B1012400E0CF
:10571000002400F0B7F92046A5E710B5044600289C
:1057200007D140F2EF32AFF2BC01AFF2A40000F0BB
:10573000B5FA00F08DF9246A00F0A4F9204692E74A
:1057400070B50D460446002807D140F2FF32AFF293
:10575000E401AFF2CC0000F0A1FA00F079F9256283
:10576000BDE8704000F08EB930B5744900E01146D4
:105770000A688242FBD34B685C18844203D14068BC
:105780001844486008460D6844682318AB420DD1A0
:105790006A4B103B1B689A4206D052682244426012
:1057A0000A681268026002E0036000E00260814261
:1057B00000D0086030BD4FF410416148420706D068
:1057C000C01D20F007005E49411AC1F510415B4A37
:1057D0001060002353600144083921F00701103A9A
:1057E00011604B600B600B1A436001604068906071
:1057F00050604FF00040D06070472DE9F041054601
:105800000026FEF76CFF4D4F103F386808B9FFF7D0
:10581000D2FFF86805424AD175B1083568070BD048
:1058200005F00700C0F108000544680704D0BF2256
:1058300044A14EA000F032FA002D38D0786885429D
:1058400035D83E490846046801E0214604466068B0
:10585000A84202D220680028F7D13868844226D0B6
:105860000E680836206808606068401B102811D94F
:1058700004EB05085FEA487004D0EC2231A13BA09C
:1058800000F00CFA6068401BC8F8040065604046F0
:10589000FFF76AFF61687868401A7860BA689042DA
:1058A00000D2B860F8680143616000202060FEF714
:1058B00067FE700705D04FF4967222A12BA000F06E
:1058C000EDF93046BDE8F08170B500282BD00838DE
:1058D00004461A4D6068103DE968084205D14FF44E
:1058E000A07218A121A000F0D9F9206828B140F2D7
:1058F000411214A11DA000F0D1F96068E9680842C6
:1059000011D02268002A0ED188436060FEF7E7FEBE
:1059100060686968084468602046FFF725FFBDE8B5
:105920007040FEF72DBE70BD0448103840687047C7
:10593000024810388068704770470000F40000206B
:10594000C40900202E2E5C2E2E5C467265655254D2
:105950004F535C706F72745C4D656D4D616E675C2A
:10596000686561705F342E63000000004572726FDD
:10597000723A25732C25640D0A00000067484068C0
:10598000401C04D0F42266A16FA000F087F95020DB
:1059900080F31188BFF34F8FBFF36F8FFEE720387E
:1059A0004FF08073C36121F0010181616A49416157
:1059B00040F82029704769484FF47A710068B0FBBD
:1059C000F1F14FF0E020491E41610721016170476C
:1059D0001CB5634908780190FF2008700878009092
:1059E0009DF800004D4A00F05000107007209060B4
:1059F00006E09068401E90609DF800004000009016
:105A00009DF800000006F4D4107A000200F4E06073
:105A10009060019808705348016841F4700101607A
:105A2000016841F070410160FFF7C5FF0020506040
:105A3000FAF79CFB00201CBD38484068B0F57A7F1F
:105A400005D04FF4B57236A13FA000F027B97047DA
:105A5000502080F31188BFF34F8FBFF36F8F2F4912
:105A60004868401C486001280BD13E481C3800683B
:105A700010F0FF0F05D04FF4BD7229A132A000F045
:105A80000DB9704710B5254C6068002805D140F26B
:105A9000811223A12CA000F001F96068401E606013
:105AA000002801D180F3118810BD10B5502080F37B
:105AB0001188BFF34F8FBFF36F8FFEF701FD20B149
:105AC00028494FF080501C390860002080F311886D
:105AD00010BD10B5FAF780FB104C10280CD300F164
